{
  "_format": "hh-sol-artifact-1",
  "contractName": "MockHKDR",
  "sourceName": "contracts/MockHKDR.sol",
  "abi": [
    {
      "inputs": [],
      "stateMutability": "nonpayable",
      "type": "constructor"
    },
    {
      "inputs": [
        {
          "internalType": "address",
          "name": "spender",
          "type": "address"
        },
        {
          "internalType": "uint256",
          "name": "allowance",
          "type": "uint256"
        },
        {
          "internalType": "uint256",
          "name": "needed",
          "type": "uint256"
        }
      ],
      "name": "ERC20InsufficientAllowance",
      "type": "error"
    },
    {
      "inputs": [
        {
          "internalType": "address",
          "name": "sender",
          "type": "address"
        },
        {
          "internalType": "uint256",
          "name": "balance",
          "type": "uint256"
        },
        {
          "internalType": "uint256",
          "name": "needed",
          "type": "uint256"
        }
      ],
      "name": "ERC20InsufficientBalance",
      "type": "error"
    },
    {
      "inputs": [
        {
          "internalType": "address",
          "name": "approver",
          "type": "address"
        }
      ],
      "name": "ERC20InvalidApprover",
      "type": "error"
    },
    {
      "inputs": [
        {
          "internalType": "address",
          "name": "receiver",
          "type": "address"
        }
      ],
      "name": "ERC20InvalidReceiver",
      "type": "error"
    },
    {
      "inputs": [
        {
          "internalType": "address",
          "name": "sender",
          "type": "address"
        }
      ],
      "name": "ERC20InvalidSender",
      "type": "error"
    },
    {
      "inputs": [
        {
          "internalType": "address",
          "name": "spender",
          "type": "address"
        }
      ],
      "name": "ERC20InvalidSpender",
      "type": "error"
    },
    {
      "inputs": [
        {
          "internalType": "uint256",
          "name": "availableAt",
          "type": "uint256"
        }
      ],
      "name": "FaucetCooldown",
      "type": "error"
    },
    {
      "anonymous": false,
      "inputs": [
        {
          "indexed": true,
          "internalType": "address",
          "name": "owner",
          "type": "address"
        },
        {
          "indexed": true,
          "internalType": "address",
          "name": "spender",
          "type": "address"
        },
        {
          "indexed": false,
          "internalType": "uint256",
          "name": "value",
          "type": "uint256"
        }
      ],
      "name": "Approval",
      "type": "event"
    },
    {
      "anonymous": false,
      "inputs": [
        {
          "indexed": true,
          "internalType": "address",
          "name": "user",
          "type": "address"
        },
        {
          "indexed": false,
          "internalType": "uint256",
          "name": "amount",
          "type": "uint256"
        }
      ],
      "name": "FaucetClaimed",
      "type": "event"
    },
    {
      "anonymous": false,
      "inputs": [
        {
          "indexed": true,
          "internalType": "address",
          "name": "from",
          "type": "address"
        },
        {
          "indexed": true,
          "internalType": "address",
          "name": "to",
          "type": "address"
        },
        {
          "indexed": false,
          "internalType": "uint256",
          "name": "value",
          "type": "uint256"
        }
      ],
      "name": "Transfer",
      "type": "event"
    },
    {
      "inputs": [],
      "name": "FAUCET_AMOUNT",
      "outputs": [
        {
          "internalType": "uint256",
          "name": "",
          "type": "uint256"
        }
      ],
      "stateMutability": "view",
      "type": "function"
    },
    {
      "inputs": [],
      "name": "FAUCET_COOLDOWN",
      "outputs": [
        {
          "internalType": "uint256",
          "name": "",
          "type": "uint256"
        }
      ],
      "stateMutability": "view",
      "type": "function"
    },
    {
      "inputs": [
        {
          "internalType": "address",
          "name": "owner",
          "type": "address"
        },
        {
          "internalType": "address",
          "name": "spender",
          "type": "address"
        }
      ],
      "name": "allowance",
      "outputs": [
        {
          "internalType": "uint256",
          "name": "",
          "type": "uint256"
        }
      ],
      "stateMutability": "view",
      "type": "function"
    },
    {
      "inputs": [
        {
          "internalType": "address",
          "name": "spender",
          "type": "address"
        },
        {
          "internalType": "uint256",
          "name": "value",
          "type": "uint256"
        }
      ],
      "name": "approve",
      "outputs": [
        {
          "internalType": "bool",
          "name": "",
          "type": "bool"
        }
      ],
      "stateMutability": "nonpayable",
      "type": "function"
    },
    {
      "inputs": [
        {
          "internalType": "address",
          "name": "account",
          "type": "address"
        }
      ],
      "name": "balanceOf",
      "outputs": [
        {
          "internalType": "uint256",
          "name": "",
          "type": "uint256"
        }
      ],
      "stateMutability": "view",
      "type": "function"
    },
    {
      "inputs": [],
      "name": "decimals",
      "outputs": [
        {
          "internalType": "uint8",
          "name": "",
          "type": "uint8"
        }
      ],
      "stateMutability": "view",
      "type": "function"
    },
    {
      "inputs": [],
      "name": "faucet",
      "outputs": [],
      "stateMutability": "nonpayable",
      "type": "function"
    },
    {
      "inputs": [
        {
          "internalType": "address",
          "name": "",
          "type": "address"
        }
      ],
      "name": "lastFaucetClaim",
      "outputs": [
        {
          "internalType": "uint256",
          "name": "",
          "type": "uint256"
        }
      ],
      "stateMutability": "view",
      "type": "function"
    },
    {
      "inputs": [],
      "name": "name",
      "outputs": [
        {
          "internalType": "string",
          "name": "",
          "type": "string"
        }
      ],
      "stateMutability": "view",
      "type": "function"
    },
    {
      "inputs": [],
      "name": "symbol",
      "outputs": [
        {
          "internalType": "string",
          "name": "",
          "type": "string"
        }
      ],
      "stateMutability": "view",
      "type": "function"
    },
    {
      "inputs": [],
      "name": "totalSupply",
      "outputs": [
        {
          "internalType": "uint256",
          "name": "",
          "type": "uint256"
        }
      ],
      "stateMutability": "view",
      "type": "function"
    },
    {
      "inputs": [
        {
          "internalType": "address",
          "name": "to",
          "type": "address"
        },
        {
          "internalType": "uint256",
          "name": "value",
          "type": "uint256"
        }
      ],
      "name": "transfer",
      "outputs": [
        {
          "internalType": "bool",
          "name": "",
          "type": "bool"
        }
      ],
      "stateMutability": "nonpayable",
      "type": "function"
    },
    {
      "inputs": [
        {
          "internalType": "address",
          "name": "from",
          "type": "address"
        },
        {
          "internalType": "address",
          "name": "to",
          "type": "address"
        },
        {
          "internalType": "uint256",
          "name": "value",
          "type": "uint256"
        }
      ],
      "name": "transferFrom",
      "outputs": [
        {
          "internalType": "bool",
          "name": "",
          "type": "bool"
        }
      ],
      "stateMutability": "nonpayable",
      "type": "function"
    }
  ],
  "bytecode": "0x60806040523480156200001157600080fd5b506040518060400160405280601381526020017f4d6f636b20484b4420537461626c65636f696e00000000000000000000000000815250604051806040016040528060048152602001632425a22960e11b8152508160039081620000769190620002c6565b506004620000858282620002c6565b505050620000a43369d3c21bcecceda1000000620000aa60201b60201c565b620003ba565b6001600160a01b038216620000da5760405163ec442f0560e01b8152600060048201526024015b60405180910390fd5b620000e860008383620000ec565b5050565b6001600160a01b0383166200011b5780600260008282546200010f919062000392565b909155506200018f9050565b6001600160a01b03831660009081526020819052604090205481811015620001705760405163391434e360e21b81526001600160a01b03851660048201526024810182905260448101839052606401620000d1565b6001600160a01b03841660009081526020819052604090209082900390555b6001600160a01b038216620001ad57600280548290039055620001cc565b6001600160a01b03821660009081526020819052604090208054820190555b816001600160a01b0316836001600160a01b03167fddf252ad1be2c89b69c2b068fc378daa952ba7f163c4a11628f55a4df523b3ef836040516200021291815260200190565b60405180910390a3505050565b634e487b7160e01b600052604160045260246000fd5b600181811c908216806200024a57607f821691505b6020821081036200026b57634e487b7160e01b600052602260045260246000fd5b50919050565b601f821115620002c1576000816000526020600020601f850160051c810160208610156200029c5750805b601f850160051c820191505b81811015620002bd57828155600101620002a8565b5050505b505050565b81516001600160401b03811115620002e257620002e26200021f565b620002fa81620002f3845462000235565b8462000271565b602080601f831160018114620003325760008415620003195750858301515b600019600386901b1c1916600185901b178555620002bd565b600085815260208120601f198616915b82811015620003635788860151825594840194600190910190840162000342565b5085821015620003825787850151600019600388901b60f8161c191681555b5050505050600190811b01905550565b80820180821115620003b457634e487b7160e01b600052601160045260246000fd5b92915050565b6108a480620003ca6000396000f3fe608060405234801561001057600080fd5b50600436106100cf5760003560e01c8063766976401161008c57806395d89b411161006657806395d89b41146101ac578063a9059cbb146101b4578063dd62ed3e146101c7578063de5f72fd1461020057600080fd5b806376697640146101725780637d1d5d19146101835780638a8772051461018c57600080fd5b806306fdde03146100d4578063095ea7b3146100f257806318160ddd1461011557806323b872dd14610127578063313ce5671461013a57806370a0823114610149575b600080fd5b6100dc61020a565b6040516100e991906106ed565b60405180910390f35b610105610100366004610758565b61029c565b60405190151581526020016100e9565b6002545b6040519081526020016100e9565b610105610135366004610782565b6102b6565b604051601281526020016100e9565b6101196101573660046107be565b6001600160a01b031660009081526020819052604090205490565b61011969021e19e0c9bab240000081565b610119610e1081565b61011961019a3660046107be565b60056020526000908152604090205481565b6100dc6102da565b6101056101c2366004610758565b6102e9565b6101196101d53660046107e0565b6001600160a01b03918216600090815260016020908152604080832093909416825291909152205490565b6102086102f7565b005b60606003805461021990610813565b80601f016020809104026020016040519081016040528092919081815260200182805461024590610813565b80156102925780601f1061026757610100808354040283529160200191610292565b820191906000526020600020905b81548152906001019060200180831161027557829003601f168201915b5050505050905090565b6000336102aa8185856103c4565b60019150505b92915050565b6000336102c48582856103d6565b6102cf858585610455565b506001949350505050565b60606004805461021990610813565b6000336102aa818585610455565b3360009081526005602052604090205461031490610e109061084d565b42101561035d573360009081526005602052604090205461033890610e109061084d565b6040516312272bab60e01b815260040161035491815260200190565b60405180910390fd5b3360008181526005602052604090204290556103839069021e19e0c9bab24000006104b4565b60405169021e19e0c9bab2400000815233907f5d4f415c63cd8a5874d9d291cdd64cec37e5dc236d90d659c958d109d78074b39060200160405180910390a2565b6103d183838360016104ee565b505050565b6001600160a01b0383811660009081526001602090815260408083209386168352929052205460001981101561044f578181101561044057604051637dc7a0d960e11b81526001600160a01b03841660048201526024810182905260448101839052606401610354565b61044f848484840360006104ee565b50505050565b6001600160a01b03831661047f57604051634b637e8f60e11b815260006004820152602401610354565b6001600160a01b0382166104a95760405163ec442f0560e01b815260006004820152602401610354565b6103d18383836105c3565b6001600160a01b0382166104de5760405163ec442f0560e01b815260006004820152602401610354565b6104ea600083836105c3565b5050565b6001600160a01b0384166105185760405163e602df0560e01b815260006004820152602401610354565b6001600160a01b03831661054257604051634a1406b160e11b815260006004820152602401610354565b6001600160a01b038085166000908152600160209081526040808320938716835292905220829055801561044f57826001600160a01b0316846001600160a01b03167f8c5be1e5ebec7d5bd14f71427d1e84f3dd0314c0f7b2291e5b200ac8c7c3b925846040516105b591815260200190565b60405180910390a350505050565b6001600160a01b0383166105ee5780600260008282546105e3919061084d565b909155506106609050565b6001600160a01b038316600090815260208190526040902054818110156106415760405163391434e360e21b81526001600160a01b03851660048201526024810182905260448101839052606401610354565b6001600160a01b03841660009081526020819052604090209082900390555b6001600160a01b03821661067c5760028054829003905561069b565b6001600160a01b03821660009081526020819052604090208054820190555b816001600160a01b0316836001600160a01b03167fddf252ad1be2c89b69c2b068fc378daa952ba7f163c4a11628f55a4df523b3ef836040516106e091815260200190565b60405180910390a3505050565b60006020808352835180602085015260005b8181101561071b578581018301518582016040015282016106ff565b506000604082860101526040601f19601f8301168501019250505092915050565b80356001600160a01b038116811461075357600080fd5b919050565b6000806040838503121561076b57600080fd5b6107748361073c565b946020939093013593505050565b60008060006060848603121561079757600080fd5b6107a08461073c565b92506107ae6020850161073c565b9150604084013590509250925092565b6000602082840312156107d057600080fd5b6107d98261073c565b9392505050565b600080604083850312156107f357600080fd5b6107fc8361073c565b915061080a6020840161073c565b90509250929050565b600181811c9082168061082757607f821691505b60208210810361084757634e487b7160e01b600052602260045260246000fd5b50919050565b808201808211156102b057634e487b7160e01b600052601160045260246000fdfea264697066735822122096e6109280242352e1f7546bfcbd57e881b48fffe49fae4f36b35c6c74e6552664736f6c63430008180033",
  "linkReferences": {},
  "deployedLinkReferences": {}
}