{"contracts/RemicoPay.sol":{"RemicoPay":{"abi":[{"inputs":[{"internalType":"address","name":"_hkdr","type":"address"},{"internalType":"address","name":"_phpc","type":"address"},{"internalType":"uint256","name":"_exchangeRate","type":"uint256"},{"internalType":"uint256","name":"_feeBps","type":"uint256"}],"stateMutability":"nonpayable","type":"constructor"},{"inputs":[],"name":"InsufficientAllowance","type":"error"},{"inputs":[],"name":"InvalidFee","type":"error"},{"inputs":[],"name":"InvalidRate","type":"error"},{"inputs":[{"internalType":"address","name":"owner","type":"address"}],"name":"OwnableInvalidOwner","type":"error"},{"inputs":[{"internalType":"address","name":"account","type":"address"}],"name":"OwnableUnauthorizedAccount","type":"error"},{"inputs":[],"name":"ReentrancyGuardReentrantCall","type":"error"},{"inputs":[],"name":"RemittanceNotFound","type":"error"},{"inputs":[],"name":"RemittanceNotPending","type":"error"},{"inputs":[{"internalType":"address","name":"token","type":"address"}],"name":"SafeERC20FailedOperation","type":"error"},{"inputs":[],"name":"ZeroAddress","type":"error"},{"inputs":[],"name":"ZeroAmount","type":"error"},{"anonymous":false,"inputs":[{"indexed":false,"internalType":"uint256","name":"oldRate","type":"uint256"},{"indexed":false,"internalType":"uint256","name":"newRate","type":"uint256"}],"name":"ExchangeRateUpdated","type":"event"},{"anonymous":false,"inputs":[{"indexed":false,"internalType":"uint256","name":"oldFee","type":"uint256"},{"indexed":false,"internalType":"uint256","name":"newFee","type":"uint256"}],"name":"FeeBpsUpdated","type":"event"},{"anonymous":false,"inputs":[{"indexed":true,"internalType":"address","name":"previousOwner","type":"address"},{"indexed":true,"internalType":"address","name":"newOwner","type":"address"}],"name":"OwnershipTransferred","type":"event"},{"anonymous":false,"inputs":[{"indexed":true,"internalType":"uint256","name":"remitId","type":"uint256"},{"indexed":true,"internalType":"address","name":"recipient","type":"address"},{"indexed":false,"internalType":"uint256","name":"phpAmount","type":"uint256"}],"name":"RemittanceCompleted","type":"event"},{"anonymous":false,"inputs":[{"indexed":true,"internalType":"uint256","name":"remitId","type":"uint256"},{"indexed":true,"internalType":"address","name":"sender","type":"address"},{"indexed":true,"internalType":"address","name":"recipient","type":"address"},{"indexed":false,"internalType":"uint256","name":"hkdAmount","type":"uint256"},{"indexed":false,"internalType":"uint256","name":"phpAmount","type":"uint256"},{"indexed":false,"internalType":"uint256","name":"fee","type":"uint256"},{"indexed":false,"internalType":"uint256","name":"rate","type":"uint256"}],"name":"RemittanceCreated","type":"event"},{"anonymous":false,"inputs":[{"indexed":true,"internalType":"uint256","name":"remitId","type":"uint256"},{"indexed":true,"internalType":"address","name":"sender","type":"address"},{"indexed":false,"internalType":"uint256","name":"hkdAmount","type":"uint256"}],"name":"RemittanceRefunded","type":"event"},{"inputs":[{"internalType":"uint256","name":"remitId","type":"uint256"}],"name":"completeRemittance","outputs":[],"stateMutability":"nonpayable","type":"function"},{"inputs":[{"internalType":"address","name":"recipient","type":"address"},{"internalType":"uint256","name":"hkdAmount","type":"uint256"}],"name":"createRemittance","outputs":[{"internalType":"uint256","name":"remitId","type":"uint256"}],"stateMutability":"nonpayable","type":"function"},{"inputs":[],"name":"exchangeRate","outputs":[{"internalType":"uint256","name":"","type":"uint256"}],"stateMutability":"view","type":"function"},{"inputs":[],"name":"feeBps","outputs":[{"internalType":"uint256","name":"","type":"uint256"}],"stateMutability":"view","type":"function"},{"inputs":[{"internalType":"uint256","name":"hkdAmount","type":"uint256"}],"name":"getQuote","outputs":[{"internalType":"uint256","name":"phpAmount","type":"uint256"},{"internalType":"uint256","name":"fee","type":"uint256"},{"internalType":"uint256","name":"rate","type":"uint256"}],"stateMutability":"view","type":"function"},{"inputs":[{"internalType":"uint256","name":"remitId","type":"uint256"}],"name":"getRemittance","outputs":[{"components":[{"internalType":"address","name":"sender","type":"address"},{"internalType":"address","name":"recipient","type":"address"},{"internalType":"uint256","name":"hkdAmount","type":"uint256"},{"internalType":"uint256","name":"phpAmount","type":"uint256"},{"internalType":"uint256","name":"fee","type":"uint256"},{"internalType":"uint256","name":"lockedRate","type":"uint256"},{"internalType":"uint64","name":"createdAt","type":"uint64"},{"internalType":"enum RemicoPay.Status","name":"status","type":"uint8"}],"internalType":"struct RemicoPay.Remittance","name":"","type":"tuple"}],"stateMutability":"view","type":"function"},{"inputs":[],"name":"hkdr","outputs":[{"internalType":"contract IERC20","name":"","type":"address"}],"stateMutability":"view","type":"function"},{"inputs":[],"name":"nextRemitId","outputs":[{"internalType":"uint256","name":"","type":"uint256"}],"stateMutability":"view","type":"function"},{"inputs":[],"name":"owner","outputs":[{"internalType":"address","name":"","type":"address"}],"stateMutability":"view","type":"function"},{"inputs":[],"name":"phpc","outputs":[{"internalType":"address","name":"","type":"address"}],"stateMutability":"view","type":"function"},{"inputs":[{"internalType":"uint256","name":"remitId","type":"uint256"}],"name":"refundRemittance","outputs":[],"stateMutability":"nonpayable","type":"function"},{"inputs":[{"internalType":"uint256","name":"","type":"uint256"}],"name":"remittances","outputs":[{"internalType":"address","name":"sender","type":"address"},{"internalType":"address","name":"recipient","type":"address"},{"internalType":"uint256","name":"hkdAmount","type":"uint256"},{"internalType":"uint256","name":"phpAmount","type":"uint256"},{"internalType":"uint256","name":"fee","type":"uint256"},{"internalType":"uint256","name":"lockedRate","type":"uint256"},{"internalType":"uint64","name":"createdAt","type":"uint64"},{"internalType":"enum RemicoPay.Status","name":"status","type":"uint8"}],"stateMutability":"view","type":"function"},{"inputs":[],"name":"renounceOwnership","outputs":[],"stateMutability":"nonpayable","type":"function"},{"inputs":[{"internalType":"uint256","name":"newRate","type":"uint256"}],"name":"setExchangeRate","outputs":[],"stateMutability":"nonpayable","type":"function"},{"inputs":[{"internalType":"uint256","name":"newFeeBps","type":"uint256"}],"name":"setFeeBps","outputs":[],"stateMutability":"nonpayable","type":"function"},{"inputs":[{"internalType":"address","name":"newOwner","type":"address"}],"name":"transferOwnership","outputs":[],"stateMutability":"nonpayable","type":"function"}],"evm":{"bytecode":{"linkReferences":{},"object":"60c06040523480156200001157600080fd5b506040516200109f3803806200109f833981016040819052620000349162000182565b600160005533806200006057604051631e4fbdf760e01b81526000600482015260240160405180910390fd5b6200006b8162000113565b506001600160a01b03841615806200008a57506001600160a01b038316155b15620000a95760405163d92e233d60e01b815260040160405180910390fd5b81600003620000cb57604051636a43f8d160e01b815260040160405180910390fd5b6103e8811115620000ef576040516358d620b360e01b815260040160405180910390fd5b6001600160a01b039384166080529190921660a052600291909155600355620001ca565b600180546001600160a01b038381166001600160a01b0319831681179093556040519116919082907f8be0079c531659141344cd1fd0a4f28419497f9722a3daafe3b4186f6b6457e090600090a35050565b80516001600160a01b03811681146200017d57600080fd5b919050565b600080600080608085870312156200019957600080fd5b620001a48562000165565b9350620001b46020860162000165565b6040860151606090960151949790965092505050565b60805160a051610e9a620002056000396000818161018301526103ff01526000818161010a015281816108360152610a810152610e9a6000f3fe608060405234801561001057600080fd5b50600436106101005760003560e01c806379bdfff411610097578063cf39918e11610066578063cf39918e14610291578063db068e0e146102bf578063f2fde38b146102d2578063f9ebf69e146102e557600080fd5b806379bdfff4146101e05780638da5cb5b146101f35780639cb3e85214610204578063b4ea0d5f1461020d57600080fd5b806364ba3c13116100d357806364ba3c131461017e578063715018a6146101a557806372c27b62146101ad57806373e66f43146101c057600080fd5b8063075866ac1461010557806324a9d853146101495780633ba0b9a9146101605780635de7f90114610169575b600080fd5b61012c7f000000000000000000000000000000000000000000000000000000000000000081565b6040516001600160a01b0390911681526020015b60405180910390f35b61015260035481565b604051908152602001610140565b61015260025481565b61017c610177366004610c72565b6102f8565b005b61012c7f000000000000000000000000000000000000000000000000000000000000000081565b61017c61046b565b61017c6101bb366004610c72565b61047f565b6101d36101ce366004610c72565b6104f0565b6040516101409190610cc3565b6101526101ee366004610d57565b610608565b6001546001600160a01b031661012c565b61015260045481565b61027d61021b366004610c72565b600560208190526000918252604090912080546001820154600283015460038401546004850154958501546006909501546001600160a01b0394851696939094169491939092919067ffffffffffffffff81169060ff600160401b9091041688565b604051610140989796959493929190610d81565b6102a461029f366004610c72565b610873565b60408051938452602084019290925290820152606001610140565b61017c6102cd366004610c72565b6108ea565b61017c6102e0366004610de0565b610951565b61017c6102f3366004610c72565b610991565b610300610ab5565b610308610ae2565b600454811061032a57604051630638c3db60e41b815260040160405180910390fd5b6000818152600560205260408120906006820154600160401b900460ff16600281111561035957610359610c8b565b1461037757604051631f8f702560e11b815260040160405180910390fd5b6001810154600382015460068301805460ff60401b1916600160401b1790556040518181526001600160a01b0390921691829085907f6d74db8ae01a3dbd4b27059d5065ede6f515adc14de4678cc4eabb244dc95ecc9060200160405180910390a36040516340c10f1960e01b81526001600160a01b038381166004830152602482018390527f000000000000000000000000000000000000000000000000000000000000000016906340c10f1990604401600060405180830381600087803b15801561044357600080fd5b505af1158015610457573d6000803e3d6000fd5b505050505050506104686001600055565b50565b610473610ab5565b61047d6000610b0c565b565b610487610ab5565b6103e88111156104aa576040516358d620b360e01b815260040160405180910390fd5b600380549082905560408051828152602081018490527f5ec5620e288c4be955ccb6cfb3d55431a8fed5c4c96ffacc4b9506360695f64e91015b60405180910390a15050565b6105356040805161010081018252600080825260208201819052918101829052606081018290526080810182905260a0810182905260c081018290529060e082015290565b600454821061055757604051630638c3db60e41b815260040160405180910390fd5b60008281526005602081815260409283902083516101008101855281546001600160a01b039081168252600183015416928101929092526002808201549483019490945260038101546060830152600481015460808301529182015460a0820152600682015467ffffffffffffffff811660c0830152909260e0840191600160401b900460ff16908111156105ee576105ee610c8b565b60028111156105ff576105ff610c8b565b90525092915050565b6000610612610ae2565b6001600160a01b0383166106395760405163d92e233d60e01b815260040160405180910390fd5b8160000361065a57604051631f2a200560e01b815260040160405180910390fd5b600254600354600061271061066f8387610e18565b6106799190610e2f565b905060006106878287610e51565b90506000620f42406106998684610e18565b6106a39190610e2f565b600480546001810190915560408051610100810182523381526001600160a01b038c1660208201529081018a9052606081018390526080810186905260a0810188905267ffffffffffffffff421660c082015290975090915060e0810160009052600087815260056020818152604092839020845181546001600160a01b03199081166001600160a01b039283161783559286015160018301805490941691161790915591830151600280840191909155606084015160038401556080840151600484015560a08401519183019190915560c083015160068301805467ffffffffffffffff19811667ffffffffffffffff909316928317825560e086015193919268ffffffffffffffffff199091161790600160401b9084908111156107cb576107cb610c8b565b0217905550506040805189815260208101849052908101859052606081018790526001600160a01b038a169150339088907f8e0a4c64a0db630be23554730e48f763dde6cb7b66d81a47ac11d9d30881d9309060800160405180910390a461085e6001600160a01b037f00000000000000000000000000000000000000000000000000000000000000001633308a610b5e565b505050505061086d6001600055565b92915050565b60008060008360000361089957604051631f2a200560e01b815260040160405180910390fd5b50600254600354612710906108ae9086610e18565b6108b89190610e2f565b915060006108c68386610e51565b9050620f42406108d68383610e18565b6108e09190610e2f565b9350509193909250565b6108f2610ab5565b8060000361091357604051636a43f8d160e01b815260040160405180910390fd5b600280549082905560408051828152602081018490527fc8d1043f24843c0a1c9251fdc30017d84e87498fbcf232af9f86816b5e182bde91016104e4565b610959610ab5565b6001600160a01b03811661098857604051631e4fbdf760e01b8152600060048201526024015b60405180910390fd5b61046881610b0c565b610999610ab5565b6109a1610ae2565b60045481106109c357604051630638c3db60e41b815260040160405180910390fd5b6000818152600560205260408120906006820154600160401b900460ff1660028111156109f2576109f2610c8b565b14610a1057604051631f8f702560e11b815260040160405180910390fd5b8054600282015460068301805460ff60401b1916680200000000000000001790556040518181526001600160a01b0390921691829085907fa41e06c7ada25bbbeb951c502bd4d4c37fc67dbac2d94512fcc98f1b9ad2d1099060200160405180910390a3610aa86001600160a01b037f0000000000000000000000000000000000000000000000000000000000000000168383610bcb565b5050506104686001600055565b6001546001600160a01b0316331461047d5760405163118cdaa760e01b815233600482015260240161097f565b600260005403610b0557604051633ee5aeb560e01b815260040160405180910390fd5b6002600055565b600180546001600160a01b038381166001600160a01b0319831681179093556040519116919082907f8be0079c531659141344cd1fd0a4f28419497f9722a3daafe3b4186f6b6457e090600090a35050565b6040516001600160a01b038481166024830152838116604483015260648201839052610bc59186918216906323b872dd906084015b604051602081830303815290604052915060e01b6020820180516001600160e01b038381831617835250505050610c01565b50505050565b6040516001600160a01b03838116602483015260448201839052610bfc91859182169063a9059cbb90606401610b93565b505050565b600080602060008451602086016000885af180610c24576040513d6000823e3d81fd5b50506000513d91508115610c3c578060011415610c49565b6001600160a01b0384163b155b15610bc557604051635274afe760e01b81526001600160a01b038516600482015260240161097f565b600060208284031215610c8457600080fd5b5035919050565b634e487b7160e01b600052602160045260246000fd5b60038110610cbf57634e487b7160e01b600052602160045260246000fd5b9052565b60006101008201905060018060a01b038084511683528060208501511660208401525060408301516040830152606083015160608301526080830151608083015260a083015160a083015267ffffffffffffffff60c08401511660c083015260e0830151610d3460e0840182610ca1565b5092915050565b80356001600160a01b0381168114610d5257600080fd5b919050565b60008060408385031215610d6a57600080fd5b610d7383610d3b565b946020939093013593505050565b6001600160a01b0389811682528816602082015260408101879052606081018690526080810185905260a0810184905267ffffffffffffffff831660c08201526101008101610dd360e0830184610ca1565b9998505050505050505050565b600060208284031215610df257600080fd5b610dfb82610d3b565b9392505050565b634e487b7160e01b600052601160045260246000fd5b808202811582820484141761086d5761086d610e02565b600082610e4c57634e487b7160e01b600052601260045260246000fd5b500490565b8181038181111561086d5761086d610e0256fea2646970667358221220e52a87c174d7ab1b925f028c28130bb928018191c9b4fb3aeb2ce66c0e76768064736f6c63430008180033","opcodes":"PUSH1 0xC0 PUSH1 0x40 MSTORE CALLVALUE DUP1 ISZERO PUSH3 0x11 JUMPI PUSH1 0x0 DUP1 REVERT JUMPDEST POP PUSH1 0x40 MLOAD PUSH3 0x109F CODESIZE SUB DUP1 PUSH3 0x109F DUP4 CODECOPY DUP2 ADD PUSH1 0x40 DUP2 SWAP1 MSTORE PUSH3 0x34 SWAP2 PUSH3 0x182 JUMP JUMPDEST PUSH1 0x1 PUSH1 0x0 SSTORE CALLER DUP1 PUSH3 0x60 JUMPI PUSH1 0x40 MLOAD PUSH4 0x1E4FBDF7 PUSH1 0xE0 SHL DUP2 MSTORE PUSH1 0x0 PUSH1 0x4 DUP3 ADD MSTORE PUSH1 0x24 ADD PUSH1 0x40 MLOAD DUP1 SWAP2 SUB SWAP1 REVERT JUMPDEST PUSH3 0x6B DUP2 PUSH3 0x113 JUMP JUMPDEST POP PUSH1 0x1 PUSH1 0x1 PUSH1 0xA0 SHL SUB DUP5 AND ISZERO DUP1 PUSH3 0x8A JUMPI POP PUSH1 0x1 PUSH1 0x1 PUSH1 0xA0 SHL SUB DUP4 AND ISZERO JUMPDEST ISZERO PUSH3 0xA9 JUMPI PUSH1 0x40 MLOAD PUSH4 0xD92E233D PUSH1 0xE0 SHL DUP2 MSTORE PUSH1 0x4 ADD PUSH1 0x40 MLOAD DUP1 SWAP2 SUB SWAP1 REVERT JUMPDEST DUP2 PUSH1 0x0 SUB PUSH3 0xCB JUMPI PUSH1 0x40 MLOAD PUSH4 0x6A43F8D1 PUSH1 0xE0 SHL DUP2 MSTORE PUSH1 0x4 ADD PUSH1 0x40 MLOAD DUP1 SWAP2 SUB SWAP1 REVERT JUMPDEST PUSH2 0x3E8 DUP2 GT ISZERO PUSH3 0xEF JUMPI PUSH1 0x40 MLOAD PUSH4 0x58D620B3 PUSH1 0xE0 SHL DUP2 MSTORE PUSH1 0x4 ADD PUSH1 0x40 MLOAD DUP1 SWAP2 SUB SWAP1 REVERT JUMPDEST PUSH1 0x1 PUSH1 0x1 PUSH1 0xA0 SHL SUB SWAP4 DUP5 AND PUSH1 0x80 MSTORE SWAP2 SWAP1 SWAP3 AND PUSH1 0xA0 MSTORE PUSH1 0x2 SWAP2 SWAP1 SWAP2 SSTORE PUSH1 0x3 SSTORE PUSH3 0x1CA JUMP JUMPDEST PUSH1 0x1 DUP1 SLOAD PUSH1 0x1 PUSH1 0x1 PUSH1 0xA0 SHL SUB DUP4 DUP2 AND PUSH1 0x1 PUSH1 0x1 PUSH1 0xA0 SHL SUB NOT DUP4 AND DUP2 OR SWAP1 SWAP4 SSTORE PUSH1 0x40 MLOAD SWAP2 AND SWAP2 SWAP1 DUP3 SWAP1 PUSH32 0x8BE0079C531659141344CD1FD0A4F28419497F9722A3DAAFE3B4186F6B6457E0 SWAP1 PUSH1 0x0 SWAP1 LOG3 POP POP JUMP JUMPDEST DUP1 MLOAD PUSH1 0x1 PUSH1 0x1 PUSH1 0xA0 SHL SUB DUP2 AND DUP2 EQ PUSH3 0x17D JUMPI PUSH1 0x0 DUP1 REVERT JUMPDEST SWAP2 SWAP1 POP JUMP JUMPDEST PUSH1 0x0 DUP1 PUSH1 0x0 DUP1 PUSH1 0x80 DUP6 DUP8 SUB SLT ISZERO PUSH3 0x199 JUMPI PUSH1 0x0 DUP1 REVERT JUMPDEST PUSH3 0x1A4 DUP6 PUSH3 0x165 JUMP JUMPDEST SWAP4 POP PUSH3 0x1B4 PUSH1 0x20 DUP7 ADD PUSH3 0x165 JUMP JUMPDEST PUSH1 0x40 DUP7 ADD MLOAD PUSH1 0x60 SWAP1 SWAP7 ADD MLOAD SWAP5 SWAP8 SWAP1 SWAP7 POP SWAP3 POP POP POP JUMP JUMPDEST PUSH1 0x80 MLOAD PUSH1 0xA0 MLOAD PUSH2 0xE9A PUSH3 0x205 PUSH1 0x0 CODECOPY PUSH1 0x0 DUP2 DUP2 PUSH2 0x183 ADD MSTORE PUSH2 0x3FF ADD MSTORE PUSH1 0x0 DUP2 DUP2 PUSH2 0x10A ADD MSTORE DUP2 DUP2 PUSH2 0x836 ADD MSTORE PUSH2 0xA81 ADD MSTORE PUSH2 0xE9A PUSH1 0x0 RETURN INVALID PUSH1 0x80 PUSH1 0x40 MSTORE CALLVALUE DUP1 ISZERO PUSH2 0x10 JUMPI PUSH1 0x0 DUP1 REVERT JUMPDEST POP PUSH1 0x4 CALLDATASIZE LT PUSH2 0x100 JUMPI PUSH1 0x0 CALLDATALOAD PUSH1 0xE0 SHR DUP1 PUSH4 0x79BDFFF4 GT PUSH2 0x97 JUMPI DUP1 PUSH4 0xCF39918E GT PUSH2 0x66 JUMPI DUP1 PUSH4 0xCF39918E EQ PUSH2 0x291 JUMPI DUP1 PUSH4 0xDB068E0E EQ PUSH2 0x2BF JUMPI DUP1 PUSH4 0xF2FDE38B EQ PUSH2 0x2D2 JUMPI DUP1 PUSH4 0xF9EBF69E EQ PUSH2 0x2E5 JUMPI PUSH1 0x0 DUP1 REVERT JUMPDEST DUP1 PUSH4 0x79BDFFF4 EQ PUSH2 0x1E0 JUMPI DUP1 PUSH4 0x8DA5CB5B EQ PUSH2 0x1F3 JUMPI DUP1 PUSH4 0x9CB3E852 EQ PUSH2 0x204 JUMPI DUP1 PUSH4 0xB4EA0D5F EQ PUSH2 0x20D JUMPI PUSH1 0x0 DUP1 REVERT JUMPDEST DUP1 PUSH4 0x64BA3C13 GT PUSH2 0xD3 JUMPI DUP1 PUSH4 0x64BA3C13 EQ PUSH2 0x17E JUMPI DUP1 PUSH4 0x715018A6 EQ PUSH2 0x1A5 JUMPI DUP1 PUSH4 0x72C27B62 EQ PUSH2 0x1AD JUMPI DUP1 PUSH4 0x73E66F43 EQ PUSH2 0x1C0 JUMPI PUSH1 0x0 DUP1 REVERT JUMPDEST DUP1 PUSH4 0x75866AC EQ PUSH2 0x105 JUMPI DUP1 PUSH4 0x24A9D853 EQ PUSH2 0x149 JUMPI DUP1 PUSH4 0x3BA0B9A9 EQ PUSH2 0x160 JUMPI DUP1 PUSH4 0x5DE7F901 EQ PUSH2 0x169 JUMPI JUMPDEST PUSH1 0x0 DUP1 REVERT JUMPDEST PUSH2 0x12C PUSH32 0x0 DUP2 JUMP JUMPDEST PUSH1 0x40 MLOAD PUSH1 0x1 PUSH1 0x1 PUSH1 0xA0 SHL SUB SWAP1 SWAP2 AND DUP2 MSTORE PUSH1 0x20 ADD JUMPDEST PUSH1 0x40 MLOAD DUP1 SWAP2 SUB SWAP1 RETURN JUMPDEST PUSH2 0x152 PUSH1 0x3 SLOAD DUP2 JUMP JUMPDEST PUSH1 0x40 MLOAD SWAP1 DUP2 MSTORE PUSH1 0x20 ADD PUSH2 0x140 JUMP JUMPDEST PUSH2 0x152 PUSH1 0x2 SLOAD DUP2 JUMP JUMPDEST PUSH2 0x17C PUSH2 0x177 CALLDATASIZE PUSH1 0x4 PUSH2 0xC72 JUMP JUMPDEST PUSH2 0x2F8 JUMP JUMPDEST STOP JUMPDEST PUSH2 0x12C PUSH32 0x0 DUP2 JUMP JUMPDEST PUSH2 0x17C PUSH2 0x46B JUMP JUMPDEST PUSH2 0x17C PUSH2 0x1BB CALLDATASIZE PUSH1 0x4 PUSH2 0xC72 JUMP JUMPDEST PUSH2 0x47F JUMP JUMPDEST PUSH2 0x1D3 PUSH2 0x1CE CALLDATASIZE PUSH1 0x4 PUSH2 0xC72 JUMP JUMPDEST PUSH2 0x4F0 JUMP JUMPDEST PUSH1 0x40 MLOAD PUSH2 0x140 SWAP2 SWAP1 PUSH2 0xCC3 JUMP JUMPDEST PUSH2 0x152 PUSH2 0x1EE CALLDATASIZE PUSH1 0x4 PUSH2 0xD57 JUMP JUMPDEST PUSH2 0x608 JUMP JUMPDEST PUSH1 0x1 SLOAD PUSH1 0x1 PUSH1 0x1 PUSH1 0xA0 SHL SUB AND PUSH2 0x12C JUMP JUMPDEST PUSH2 0x152 PUSH1 0x4 SLOAD DUP2 JUMP JUMPDEST PUSH2 0x27D PUSH2 0x21B CALLDATASIZE PUSH1 0x4 PUSH2 0xC72 JUMP JUMPDEST PUSH1 0x5 PUSH1 0x20 DUP2 SWAP1 MSTORE PUSH1 0x0 SWAP2 DUP3 MSTORE PUSH1 0x40 SWAP1 SWAP2 KECCAK256 DUP1 SLOAD PUSH1 0x1 DUP3 ADD SLOAD PUSH1 0x2 DUP4 ADD SLOAD PUSH1 0x3 DUP5 ADD SLOAD PUSH1 0x4 DUP6 ADD SLOAD SWAP6 DUP6 ADD SLOAD PUSH1 0x6 SWAP1 SWAP6 ADD SLOAD PUSH1 0x1 PUSH1 0x1 PUSH1 0xA0 SHL SUB SWAP5 DUP6 AND SWAP7 SWAP4 SWAP1 SWAP5 AND SWAP5 SWAP2 SWAP4 SWAP1 SWAP3 SWAP2 SWAP1 PUSH8 0xFFFFFFFFFFFFFFFF DUP2 AND SWAP1 PUSH1 0xFF PUSH1 0x1 PUSH1 0x40 SHL SWAP1 SWAP2 DIV AND DUP9 JUMP JUMPDEST PUSH1 0x40 MLOAD PUSH2 0x140 SWAP9 SWAP8 SWAP7 SWAP6 SWAP5 SWAP4 SWAP3 SWAP2 SWAP1 PUSH2 0xD81 JUMP JUMPDEST PUSH2 0x2A4 PUSH2 0x29F CALLDATASIZE PUSH1 0x4 PUSH2 0xC72 JUMP JUMPDEST PUSH2 0x873 JUMP JUMPDEST PUSH1 0x40 DUP1 MLOAD SWAP4 DUP5 MSTORE PUSH1 0x20 DUP5 ADD SWAP3 SWAP1 SWAP3 MSTORE SWAP1 DUP3 ADD MSTORE PUSH1 0x60 ADD PUSH2 0x140 JUMP JUMPDEST PUSH2 0x17C PUSH2 0x2CD CALLDATASIZE PUSH1 0x4 PUSH2 0xC72 JUMP JUMPDEST PUSH2 0x8EA JUMP JUMPDEST PUSH2 0x17C PUSH2 0x2E0 CALLDATASIZE PUSH1 0x4 PUSH2 0xDE0 JUMP JUMPDEST PUSH2 0x951 JUMP JUMPDEST PUSH2 0x17C PUSH2 0x2F3 CALLDATASIZE PUSH1 0x4 PUSH2 0xC72 JUMP JUMPDEST PUSH2 0x991 JUMP JUMPDEST PUSH2 0x300 PUSH2 0xAB5 JUMP JUMPDEST PUSH2 0x308 PUSH2 0xAE2 JUMP JUMPDEST PUSH1 0x4 SLOAD DUP2 LT PUSH2 0x32A JUMPI PUSH1 0x40 MLOAD PUSH4 0x638C3DB PUSH1 0xE4 SHL DUP2 MSTORE PUSH1 0x4 ADD PUSH1 0x40 MLOAD DUP1 SWAP2 SUB SWAP1 REVERT JUMPDEST PUSH1 0x0 DUP2 DUP2 MSTORE PUSH1 0x5 PUSH1 0x20 MSTORE PUSH1 0x40 DUP2 KECCAK256 SWAP1 PUSH1 0x6 DUP3 ADD SLOAD PUSH1 0x1 PUSH1 0x40 SHL SWAP1 DIV PUSH1 0xFF AND PUSH1 0x2 DUP2 GT ISZERO PUSH2 0x359 JUMPI PUSH2 0x359 PUSH2 0xC8B JUMP JUMPDEST EQ PUSH2 0x377 JUMPI PUSH1 0x40 MLOAD PUSH4 0x1F8F7025 PUSH1 0xE1 SHL DUP2 MSTORE PUSH1 0x4 ADD PUSH1 0x40 MLOAD DUP1 SWAP2 SUB SWAP1 REVERT JUMPDEST PUSH1 0x1 DUP2 ADD SLOAD PUSH1 0x3 DUP3 ADD SLOAD PUSH1 0x6 DUP4 ADD DUP1 SLOAD PUSH1 0xFF PUSH1 0x40 SHL NOT AND PUSH1 0x1 PUSH1 0x40 SHL OR SWAP1 SSTORE PUSH1 0x40 MLOAD DUP2 DUP2 MSTORE PUSH1 0x1 PUSH1 0x1 PUSH1 0xA0 SHL SUB SWAP1 SWAP3 AND SWAP2 DUP3 SWAP1 DUP6 SWAP1 PUSH32 0x6D74DB8AE01A3DBD4B27059D5065EDE6F515ADC14DE4678CC4EABB244DC95ECC SWAP1 PUSH1 0x20 ADD PUSH1 0x40 MLOAD DUP1 SWAP2 SUB SWAP1 LOG3 PUSH1 0x40 MLOAD PUSH4 0x40C10F19 PUSH1 0xE0 SHL DUP2 MSTORE PUSH1 0x1 PUSH1 0x1 PUSH1 0xA0 SHL SUB DUP4 DUP2 AND PUSH1 0x4 DUP4 ADD MSTORE PUSH1 0x24 DUP3 ADD DUP4 SWAP1 MSTORE PUSH32 0x0 AND SWAP1 PUSH4 0x40C10F19 SWAP1 PUSH1 0x44 ADD PUSH1 0x0 PUSH1 0x40 MLOAD DUP1 DUP4 SUB DUP2 PUSH1 0x0 DUP8 DUP1 EXTCODESIZE ISZERO DUP1 ISZERO PUSH2 0x443 JUMPI PUSH1 0x0 DUP1 REVERT JUMPDEST POP GAS CALL ISZERO DUP1 ISZERO PUSH2 0x457 JUMPI RETURNDATASIZE PUSH1 0x0 DUP1 RETURNDATACOPY RETURNDATASIZE PUSH1 0x0 REVERT JUMPDEST POP POP POP POP POP POP POP PUSH2 0x468 PUSH1 0x1 PUSH1 0x0 SSTORE JUMP JUMPDEST POP JUMP JUMPDEST PUSH2 0x473 PUSH2 0xAB5 JUMP JUMPDEST PUSH2 0x47D PUSH1 0x0 PUSH2 0xB0C JUMP JUMPDEST JUMP JUMPDEST PUSH2 0x487 PUSH2 0xAB5 JUMP JUMPDEST PUSH2 0x3E8 DUP2 GT ISZERO PUSH2 0x4AA JUMPI PUSH1 0x40 MLOAD PUSH4 0x58D620B3 PUSH1 0xE0 SHL DUP2 MSTORE PUSH1 0x4 ADD PUSH1 0x40 MLOAD DUP1 SWAP2 SUB SWAP1 REVERT JUMPDEST PUSH1 0x3 DUP1 SLOAD SWAP1 DUP3 SWAP1 SSTORE PUSH1 0x40 DUP1 MLOAD DUP3 DUP2 MSTORE PUSH1 0x20 DUP2 ADD DUP5 SWAP1 MSTORE PUSH32 0x5EC5620E288C4BE955CCB6CFB3D55431A8FED5C4C96FFACC4B9506360695F64E SWAP2 ADD JUMPDEST PUSH1 0x40 MLOAD DUP1 SWAP2 SUB SWAP1 LOG1 POP POP JUMP JUMPDEST PUSH2 0x535 PUSH1 0x40 DUP1 MLOAD PUSH2 0x100 DUP2 ADD DUP3 MSTORE PUSH1 0x0 DUP1 DUP3 MSTORE PUSH1 0x20 DUP3 ADD DUP2 SWAP1 MSTORE SWAP2 DUP2 ADD DUP3 SWAP1 MSTORE PUSH1 0x60 DUP2 ADD DUP3 SWAP1 MSTORE PUSH1 0x80 DUP2 ADD DUP3 SWAP1 MSTORE PUSH1 0xA0 DUP2 ADD DUP3 SWAP1 MSTORE PUSH1 0xC0 DUP2 ADD DUP3 SWAP1 MSTORE SWAP1 PUSH1 0xE0 DUP3 ADD MSTORE SWAP1 JUMP JUMPDEST PUSH1 0x4 SLOAD DUP3 LT PUSH2 0x557 JUMPI PUSH1 0x40 MLOAD PUSH4 0x638C3DB PUSH1 0xE4 SHL DUP2 MSTORE PUSH1 0x4 ADD PUSH1 0x40 MLOAD DUP1 SWAP2 SUB SWAP1 REVERT JUMPDEST PUSH1 0x0 DUP3 DUP2 MSTORE PUSH1 0x5 PUSH1 0x20 DUP2 DUP2 MSTORE PUSH1 0x40 SWAP3 DUP4 SWAP1 KECCAK256 DUP4 MLOAD PUSH2 0x100 DUP2 ADD DUP6 MSTORE DUP2 SLOAD PUSH1 0x1 PUSH1 0x1 PUSH1 0xA0 SHL SUB SWAP1 DUP2 AND DUP3 MSTORE PUSH1 0x1 DUP4 ADD SLOAD AND SWAP3 DUP2 ADD SWAP3 SWAP1 SWAP3 MSTORE PUSH1 0x2 DUP1 DUP3 ADD SLOAD SWAP5 DUP4 ADD SWAP5 SWAP1 SWAP5 MSTORE PUSH1 0x3 DUP2 ADD SLOAD PUSH1 0x60 DUP4 ADD MSTORE PUSH1 0x4 DUP2 ADD SLOAD PUSH1 0x80 DUP4 ADD MSTORE SWAP2 DUP3 ADD SLOAD PUSH1 0xA0 DUP3 ADD MSTORE PUSH1 0x6 DUP3 ADD SLOAD PUSH8 0xFFFFFFFFFFFFFFFF DUP2 AND PUSH1 0xC0 DUP4 ADD MSTORE SWAP1 SWAP3 PUSH1 0xE0 DUP5 ADD SWAP2 PUSH1 0x1 PUSH1 0x40 SHL SWAP1 DIV PUSH1 0xFF AND SWAP1 DUP2 GT ISZERO PUSH2 0x5EE JUMPI PUSH2 0x5EE PUSH2 0xC8B JUMP JUMPDEST PUSH1 0x2 DUP2 GT ISZERO PUSH2 0x5FF JUMPI PUSH2 0x5FF PUSH2 0xC8B JUMP JUMPDEST SWAP1 MSTORE POP SWAP3 SWAP2 POP POP JUMP JUMPDEST PUSH1 0x0 PUSH2 0x612 PUSH2 0xAE2 JUMP JUMPDEST PUSH1 0x1 PUSH1 0x1 PUSH1 0xA0 SHL SUB DUP4 AND PUSH2 0x639 JUMPI PUSH1 0x40 MLOAD PUSH4 0xD92E233D PUSH1 0xE0 SHL DUP2 MSTORE PUSH1 0x4 ADD PUSH1 0x40 MLOAD DUP1 SWAP2 SUB SWAP1 REVERT JUMPDEST DUP2 PUSH1 0x0 SUB PUSH2 0x65A JUMPI PUSH1 0x40 MLOAD PUSH4 0x1F2A2005 PUSH1 0xE0 SHL DUP2 MSTORE PUSH1 0x4 ADD PUSH1 0x40 MLOAD DUP1 SWAP2 SUB SWAP1 REVERT JUMPDEST PUSH1 0x2 SLOAD PUSH1 0x3 SLOAD PUSH1 0x0 PUSH2 0x2710 PUSH2 0x66F DUP4 DUP8 PUSH2 0xE18 JUMP JUMPDEST PUSH2 0x679 SWAP2 SWAP1 PUSH2 0xE2F JUMP JUMPDEST SWAP1 POP PUSH1 0x0 PUSH2 0x687 DUP3 DUP8 PUSH2 0xE51 JUMP JUMPDEST SWAP1 POP PUSH1 0x0 PUSH3 0xF4240 PUSH2 0x699 DUP7 DUP5 PUSH2 0xE18 JUMP JUMPDEST PUSH2 0x6A3 SWAP2 SWAP1 PUSH2 0xE2F JUMP JUMPDEST PUSH1 0x4 DUP1 SLOAD PUSH1 0x1 DUP2 ADD SWAP1 SWAP2 SSTORE PUSH1 0x40 DUP1 MLOAD PUSH2 0x100 DUP2 ADD DUP3 MSTORE CALLER DUP2 MSTORE PUSH1 0x1 PUSH1 0x1 PUSH1 0xA0 SHL SUB DUP13 AND PUSH1 0x20 DUP3 ADD MSTORE SWAP1 DUP2 ADD DUP11 SWAP1 MSTORE PUSH1 0x60 DUP2 ADD DUP4 SWAP1 MSTORE PUSH1 0x80 DUP2 ADD DUP7 SWAP1 MSTORE PUSH1 0xA0 DUP2 ADD DUP9 SWAP1 MSTORE PUSH8 0xFFFFFFFFFFFFFFFF TIMESTAMP AND PUSH1 0xC0 DUP3 ADD MSTORE SWAP1 SWAP8 POP SWAP1 SWAP2 POP PUSH1 0xE0 DUP2 ADD PUSH1 0x0 SWAP1 MSTORE PUSH1 0x0 DUP8 DUP2 MSTORE PUSH1 0x5 PUSH1 0x20 DUP2 DUP2 MSTORE PUSH1 0x40 SWAP3 DUP4 SWAP1 KECCAK256 DUP5 MLOAD DUP2 SLOAD PUSH1 0x1 PUSH1 0x1 PUSH1 0xA0 SHL SUB NOT SWAP1 DUP2 AND PUSH1 0x1 PUSH1 0x1 PUSH1 0xA0 SHL SUB SWAP3 DUP4 AND OR DUP4 SSTORE SWAP3 DUP7 ADD MLOAD PUSH1 0x1 DUP4 ADD DUP1 SLOAD SWAP1 SWAP5 AND SWAP2 AND OR SWAP1 SWAP2 SSTORE SWAP2 DUP4 ADD MLOAD PUSH1 0x2 DUP1 DUP5 ADD SWAP2 SWAP1 SWAP2 SSTORE PUSH1 0x60 DUP5 ADD MLOAD PUSH1 0x3 DUP5 ADD SSTORE PUSH1 0x80 DUP5 ADD MLOAD PUSH1 0x4 DUP5 ADD SSTORE PUSH1 0xA0 DUP5 ADD MLOAD SWAP2 DUP4 ADD SWAP2 SWAP1 SWAP2 SSTORE PUSH1 0xC0 DUP4 ADD MLOAD PUSH1 0x6 DUP4 ADD DUP1 SLOAD PUSH8 0xFFFFFFFFFFFFFFFF NOT DUP2 AND PUSH8 0xFFFFFFFFFFFFFFFF SWAP1 SWAP4 AND SWAP3 DUP4 OR DUP3 SSTORE PUSH1 0xE0 DUP7 ADD MLOAD SWAP4 SWAP2 SWAP3 PUSH9 0xFFFFFFFFFFFFFFFFFF NOT SWAP1 SWAP2 AND OR SWAP1 PUSH1 0x1 PUSH1 0x40 SHL SWAP1 DUP5 SWAP1 DUP2 GT ISZERO PUSH2 0x7CB JUMPI PUSH2 0x7CB PUSH2 0xC8B JUMP JUMPDEST MUL OR SWAP1 SSTORE POP POP PUSH1 0x40 DUP1 MLOAD DUP10 DUP2 MSTORE PUSH1 0x20 DUP2 ADD DUP5 SWAP1 MSTORE SWAP1 DUP2 ADD DUP6 SWAP1 MSTORE PUSH1 0x60 DUP2 ADD DUP8 SWAP1 MSTORE PUSH1 0x1 PUSH1 0x1 PUSH1 0xA0 SHL SUB DUP11 AND SWAP2 POP CALLER SWAP1 DUP9 SWAP1 PUSH32 0x8E0A4C64A0DB630BE23554730E48F763DDE6CB7B66D81A47AC11D9D30881D930 SWAP1 PUSH1 0x80 ADD PUSH1 0x40 MLOAD DUP1 SWAP2 SUB SWAP1 LOG4 PUSH2 0x85E PUSH1 0x1 PUSH1 0x1 PUSH1 0xA0 SHL SUB PUSH32 0x0 AND CALLER ADDRESS DUP11 PUSH2 0xB5E JUMP JUMPDEST POP POP POP POP POP PUSH2 0x86D PUSH1 0x1 PUSH1 0x0 SSTORE JUMP JUMPDEST SWAP3 SWAP2 POP POP JUMP JUMPDEST PUSH1 0x0 DUP1 PUSH1 0x0 DUP4 PUSH1 0x0 SUB PUSH2 0x899 JUMPI PUSH1 0x40 MLOAD PUSH4 0x1F2A2005 PUSH1 0xE0 SHL DUP2 MSTORE PUSH1 0x4 ADD PUSH1 0x40 MLOAD DUP1 SWAP2 SUB SWAP1 REVERT JUMPDEST POP PUSH1 0x2 SLOAD PUSH1 0x3 SLOAD PUSH2 0x2710 SWAP1 PUSH2 0x8AE SWAP1 DUP7 PUSH2 0xE18 JUMP JUMPDEST PUSH2 0x8B8 SWAP2 SWAP1 PUSH2 0xE2F JUMP JUMPDEST SWAP2 POP PUSH1 0x0 PUSH2 0x8C6 DUP4 DUP7 PUSH2 0xE51 JUMP JUMPDEST SWAP1 POP PUSH3 0xF4240 PUSH2 0x8D6 DUP4 DUP4 PUSH2 0xE18 JUMP JUMPDEST PUSH2 0x8E0 SWAP2 SWAP1 PUSH2 0xE2F JUMP JUMPDEST SWAP4 POP POP SWAP2 SWAP4 SWAP1 SWAP3 POP JUMP JUMPDEST PUSH2 0x8F2 PUSH2 0xAB5 JUMP JUMPDEST DUP1 PUSH1 0x0 SUB PUSH2 0x913 JUMPI PUSH1 0x40 MLOAD PUSH4 0x6A43F8D1 PUSH1 0xE0 SHL DUP2 MSTORE PUSH1 0x4 ADD PUSH1 0x40 MLOAD DUP1 SWAP2 SUB SWAP1 REVERT JUMPDEST PUSH1 0x2 DUP1 SLOAD SWAP1 DUP3 SWAP1 SSTORE PUSH1 0x40 DUP1 MLOAD DUP3 DUP2 MSTORE PUSH1 0x20 DUP2 ADD DUP5 SWAP1 MSTORE PUSH32 0xC8D1043F24843C0A1C9251FDC30017D84E87498FBCF232AF9F86816B5E182BDE SWAP2 ADD PUSH2 0x4E4 JUMP JUMPDEST PUSH2 0x959 PUSH2 0xAB5 JUMP JUMPDEST PUSH1 0x1 PUSH1 0x1 PUSH1 0xA0 SHL SUB DUP2 AND PUSH2 0x988 JUMPI PUSH1 0x40 MLOAD PUSH4 0x1E4FBDF7 PUSH1 0xE0 SHL DUP2 MSTORE PUSH1 0x0 PUSH1 0x4 DUP3 ADD MSTORE PUSH1 0x24 ADD JUMPDEST PUSH1 0x40 MLOAD DUP1 SWAP2 SUB SWAP1 REVERT JUMPDEST PUSH2 0x468 DUP2 PUSH2 0xB0C JUMP JUMPDEST PUSH2 0x999 PUSH2 0xAB5 JUMP JUMPDEST PUSH2 0x9A1 PUSH2 0xAE2 JUMP JUMPDEST PUSH1 0x4 SLOAD DUP2 LT PUSH2 0x9C3 JUMPI PUSH1 0x40 MLOAD PUSH4 0x638C3DB PUSH1 0xE4 SHL DUP2 MSTORE PUSH1 0x4 ADD PUSH1 0x40 MLOAD DUP1 SWAP2 SUB SWAP1 REVERT JUMPDEST PUSH1 0x0 DUP2 DUP2 MSTORE PUSH1 0x5 PUSH1 0x20 MSTORE PUSH1 0x40 DUP2 KECCAK256 SWAP1 PUSH1 0x6 DUP3 ADD SLOAD PUSH1 0x1 PUSH1 0x40 SHL SWAP1 DIV PUSH1 0xFF AND PUSH1 0x2 DUP2 GT ISZERO PUSH2 0x9F2 JUMPI PUSH2 0x9F2 PUSH2 0xC8B JUMP JUMPDEST EQ PUSH2 0xA10 JUMPI PUSH1 0x40 MLOAD PUSH4 0x1F8F7025 PUSH1 0xE1 SHL DUP2 MSTORE PUSH1 0x4 ADD PUSH1 0x40 MLOAD DUP1 SWAP2 SUB SWAP1 REVERT JUMPDEST DUP1 SLOAD PUSH1 0x2 DUP3 ADD SLOAD PUSH1 0x6 DUP4 ADD DUP1 SLOAD PUSH1 0xFF PUSH1 0x40 SHL NOT AND PUSH9 0x20000000000000000 OR SWAP1 SSTORE PUSH1 0x40 MLOAD DUP2 DUP2 MSTORE PUSH1 0x1 PUSH1 0x1 PUSH1 0xA0 SHL SUB SWAP1 SWAP3 AND SWAP2 DUP3 SWAP1 DUP6 SWAP1 PUSH32 0xA41E06C7ADA25BBBEB951C502BD4D4C37FC67DBAC2D94512FCC98F1B9AD2D109 SWAP1 PUSH1 0x20 ADD PUSH1 0x40 MLOAD DUP1 SWAP2 SUB SWAP1 LOG3 PUSH2 0xAA8 PUSH1 0x1 PUSH1 0x1 PUSH1 0xA0 SHL SUB PUSH32 0x0 AND DUP4 DUP4 PUSH2 0xBCB JUMP JUMPDEST POP POP POP PUSH2 0x468 PUSH1 0x1 PUSH1 0x0 SSTORE JUMP JUMPDEST PUSH1 0x1 SLOAD PUSH1 0x1 PUSH1 0x1 PUSH1 0xA0 SHL SUB AND CALLER EQ PUSH2 0x47D JUMPI PUSH1 0x40 MLOAD PUSH4 0x118CDAA7 PUSH1 0xE0 SHL DUP2 MSTORE CALLER PUSH1 0x4 DUP3 ADD MSTORE PUSH1 0x24 ADD PUSH2 0x97F JUMP JUMPDEST PUSH1 0x2 PUSH1 0x0 SLOAD SUB PUSH2 0xB05 JUMPI PUSH1 0x40 MLOAD PUSH4 0x3EE5AEB5 PUSH1 0xE0 SHL DUP2 MSTORE PUSH1 0x4 ADD PUSH1 0x40 MLOAD DUP1 SWAP2 SUB SWAP1 REVERT JUMPDEST PUSH1 0x2 PUSH1 0x0 SSTORE JUMP JUMPDEST PUSH1 0x1 DUP1 SLOAD PUSH1 0x1 PUSH1 0x1 PUSH1 0xA0 SHL SUB DUP4 DUP2 AND PUSH1 0x1 PUSH1 0x1 PUSH1 0xA0 SHL SUB NOT DUP4 AND DUP2 OR SWAP1 SWAP4 SSTORE PUSH1 0x40 MLOAD SWAP2 AND SWAP2 SWAP1 DUP3 SWAP1 PUSH32 0x8BE0079C531659141344CD1FD0A4F28419497F9722A3DAAFE3B4186F6B6457E0 SWAP1 PUSH1 0x0 SWAP1 LOG3 POP POP JUMP JUMPDEST PUSH1 0x40 MLOAD PUSH1 0x1 PUSH1 0x1 PUSH1 0xA0 SHL SUB DUP5 DUP2 AND PUSH1 0x24 DUP4 ADD MSTORE DUP4 DUP2 AND PUSH1 0x44 DUP4 ADD MSTORE PUSH1 0x64 DUP3 ADD DUP4 SWAP1 MSTORE PUSH2 0xBC5 SWAP2 DUP7 SWAP2 DUP3 AND SWAP1 PUSH4 0x23B872DD SWAP1 PUSH1 0x84 ADD JUMPDEST PUSH1 0x40 MLOAD PUSH1 0x20 DUP2 DUP4 SUB SUB DUP2 MSTORE SWAP1 PUSH1 0x40 MSTORE SWAP2 POP PUSH1 0xE0 SHL PUSH1 0x20 DUP3 ADD DUP1 MLOAD PUSH1 0x1 PUSH1 0x1 PUSH1 0xE0 SHL SUB DUP4 DUP2 DUP4 AND OR DUP4 MSTORE POP POP POP POP PUSH2 0xC01 JUMP JUMPDEST POP POP POP POP JUMP JUMPDEST PUSH1 0x40 MLOAD PUSH1 0x1 PUSH1 0x1 PUSH1 0xA0 SHL SUB DUP4 DUP2 AND PUSH1 0x24 DUP4 ADD MSTORE PUSH1 0x44 DUP3 ADD DUP4 SWAP1 MSTORE PUSH2 0xBFC SWAP2 DUP6 SWAP2 DUP3 AND SWAP1 PUSH4 0xA9059CBB SWAP1 PUSH1 0x64 ADD PUSH2 0xB93 JUMP JUMPDEST POP POP POP JUMP JUMPDEST PUSH1 0x0 DUP1 PUSH1 0x20 PUSH1 0x0 DUP5 MLOAD PUSH1 0x20 DUP7 ADD PUSH1 0x0 DUP9 GAS CALL DUP1 PUSH2 0xC24 JUMPI PUSH1 0x40 MLOAD RETURNDATASIZE PUSH1 0x0 DUP3 RETURNDATACOPY RETURNDATASIZE DUP2 REVERT JUMPDEST POP POP PUSH1 0x0 MLOAD RETURNDATASIZE SWAP2 POP DUP2 ISZERO PUSH2 0xC3C JUMPI DUP1 PUSH1 0x1 EQ ISZERO PUSH2 0xC49 JUMP JUMPDEST PUSH1 0x1 PUSH1 0x1 PUSH1 0xA0 SHL SUB DUP5 AND EXTCODESIZE ISZERO JUMPDEST ISZERO PUSH2 0xBC5 JUMPI PUSH1 0x40 MLOAD PUSH4 0x5274AFE7 PUSH1 0xE0 SHL DUP2 MSTORE PUSH1 0x1 PUSH1 0x1 PUSH1 0xA0 SHL SUB DUP6 AND PUSH1 0x4 DUP3 ADD MSTORE PUSH1 0x24 ADD PUSH2 0x97F JUMP JUMPDEST PUSH1 0x0 PUSH1 0x20 DUP3 DUP5 SUB SLT ISZERO PUSH2 0xC84 JUMPI PUSH1 0x0 DUP1 REVERT JUMPDEST POP CALLDATALOAD SWAP2 SWAP1 POP JUMP JUMPDEST PUSH4 0x4E487B71 PUSH1 0xE0 SHL PUSH1 0x0 MSTORE PUSH1 0x21 PUSH1 0x4 MSTORE PUSH1 0x24 PUSH1 0x0 REVERT JUMPDEST PUSH1 0x3 DUP2 LT PUSH2 0xCBF JUMPI PUSH4 0x4E487B71 PUSH1 0xE0 SHL PUSH1 0x0 MSTORE PUSH1 0x21 PUSH1 0x4 MSTORE PUSH1 0x24 PUSH1 0x0 REVERT JUMPDEST SWAP1 MSTORE JUMP JUMPDEST PUSH1 0x0 PUSH2 0x100 DUP3 ADD SWAP1 POP PUSH1 0x1 DUP1 PUSH1 0xA0 SHL SUB DUP1 DUP5 MLOAD AND DUP4 MSTORE DUP1 PUSH1 0x20 DUP6 ADD MLOAD AND PUSH1 0x20 DUP5 ADD MSTORE POP PUSH1 0x40 DUP4 ADD MLOAD PUSH1 0x40 DUP4 ADD MSTORE PUSH1 0x60 DUP4 ADD MLOAD PUSH1 0x60 DUP4 ADD MSTORE PUSH1 0x80 DUP4 ADD MLOAD PUSH1 0x80 DUP4 ADD MSTORE PUSH1 0xA0 DUP4 ADD MLOAD PUSH1 0xA0 DUP4 ADD MSTORE PUSH8 0xFFFFFFFFFFFFFFFF PUSH1 0xC0 DUP5 ADD MLOAD AND PUSH1 0xC0 DUP4 ADD MSTORE PUSH1 0xE0 DUP4 ADD MLOAD PUSH2 0xD34 PUSH1 0xE0 DUP5 ADD DUP3 PUSH2 0xCA1 JUMP JUMPDEST POP SWAP3 SWAP2 POP POP JUMP JUMPDEST DUP1 CALLDATALOAD PUSH1 0x1 PUSH1 0x1 PUSH1 0xA0 SHL SUB DUP2 AND DUP2 EQ PUSH2 0xD52 JUMPI PUSH1 0x0 DUP1 REVERT JUMPDEST SWAP2 SWAP1 POP JUMP JUMPDEST PUSH1 0x0 DUP1 PUSH1 0x40 DUP4 DUP6 SUB SLT ISZERO PUSH2 0xD6A JUMPI PUSH1 0x0 DUP1 REVERT JUMPDEST PUSH2 0xD73 DUP4 PUSH2 0xD3B JUMP JUMPDEST SWAP5 PUSH1 0x20 SWAP4 SWAP1 SWAP4 ADD CALLDATALOAD SWAP4 POP POP POP JUMP JUMPDEST PUSH1 0x1 PUSH1 0x1 PUSH1 0xA0 SHL SUB DUP10 DUP2 AND DUP3 MSTORE DUP9 AND PUSH1 0x20 DUP3 ADD MSTORE PUSH1 0x40 DUP2 ADD DUP8 SWAP1 MSTORE PUSH1 0x60 DUP2 ADD DUP7 SWAP1 MSTORE PUSH1 0x80 DUP2 ADD DUP6 SWAP1 MSTORE PUSH1 0xA0 DUP2 ADD DUP5 SWAP1 MSTORE PUSH8 0xFFFFFFFFFFFFFFFF DUP4 AND PUSH1 0xC0 DUP3 ADD MSTORE PUSH2 0x100 DUP2 ADD PUSH2 0xDD3 PUSH1 0xE0 DUP4 ADD DUP5 PUSH2 0xCA1 JUMP JUMPDEST SWAP10 SWAP9 POP POP POP POP POP POP POP POP POP JUMP JUMPDEST PUSH1 0x0 PUSH1 0x20 DUP3 DUP5 SUB SLT ISZERO PUSH2 0xDF2 JUMPI PUSH1 0x0 DUP1 REVERT JUMPDEST PUSH2 0xDFB DUP3 PUSH2 0xD3B JUMP JUMPDEST SWAP4 SWAP3 POP POP POP JUMP JUMPDEST PUSH4 0x4E487B71 PUSH1 0xE0 SHL PUSH1 0x0 MSTORE PUSH1 0x11 PUSH1 0x4 MSTORE PUSH1 0x24 PUSH1 0x0 REVERT JUMPDEST DUP1 DUP3 MUL DUP2 ISZERO DUP3 DUP3 DIV DUP5 EQ OR PUSH2 0x86D JUMPI PUSH2 0x86D PUSH2 0xE02 JUMP JUMPDEST PUSH1 0x0 DUP3 PUSH2 0xE4C JUMPI PUSH4 0x4E487B71 PUSH1 0xE0 SHL PUSH1 0x0 MSTORE PUSH1 0x12 PUSH1 0x4 MSTORE PUSH1 0x24 PUSH1 0x0 REVERT JUMPDEST POP DIV SWAP1 JUMP JUMPDEST DUP2 DUP2 SUB DUP2 DUP2 GT ISZERO PUSH2 0x86D JUMPI PUSH2 0x86D PUSH2 0xE02 JUMP INVALID LOG2 PUSH5 0x6970667358 0x22 SLT KECCAK256 0xE5 0x2A DUP8 0xC1 PUSH21 0xD7AB1B925F028C28130BB928018191C9B4FB3AEB2C 0xE6 PUSH13 0xE76768064736F6C6343000818 STOP CALLER "},"methodIdentifiers":{"completeRemittance(uint256)":"5de7f901","createRemittance(address,uint256)":"79bdfff4","exchangeRate()":"3ba0b9a9","feeBps()":"24a9d853","getQuote(uint256)":"cf39918e","getRemittance(uint256)":"73e66f43","hkdr()":"075866ac","nextRemitId()":"9cb3e852","owner()":"8da5cb5b","phpc()":"64ba3c13","refundRemittance(uint256)":"f9ebf69e","remittances(uint256)":"b4ea0d5f","renounceOwnership()":"715018a6","setExchangeRate(uint256)":"db068e0e","setFeeBps(uint256)":"72c27b62","transferOwnership(address)":"f2fde38b"}}}}}