{
  "_format": "hh-sol-artifact-1",
  "contractName": "FPSVerifier",
  "sourceName": "contracts/FPSVerifier.sol",
  "abi": [
    {
      "inputs": [],
      "stateMutability": "nonpayable",
      "type": "constructor"
    },
    {
      "inputs": [],
      "name": "AlreadyVerified",
      "type": "error"
    },
    {
      "inputs": [],
      "name": "OnlyOperator",
      "type": "error"
    },
    {
      "inputs": [
        {
          "internalType": "address",
          "name": "owner",
          "type": "address"
        }
      ],
      "name": "OwnableInvalidOwner",
      "type": "error"
    },
    {
      "inputs": [
        {
          "internalType": "address",
          "name": "account",
          "type": "address"
        }
      ],
      "name": "OwnableUnauthorizedAccount",
      "type": "error"
    },
    {
      "inputs": [],
      "name": "ZeroAddress",
      "type": "error"
    },
    {
      "inputs": [],
      "name": "ZeroAmount",
      "type": "error"
    },
    {
      "anonymous": false,
      "inputs": [
        {
          "indexed": true,
          "internalType": "address",
          "name": "operator",
          "type": "address"
        },
        {
          "indexed": false,
          "internalType": "bool",
          "name": "enabled",
          "type": "bool"
        }
      ],
      "name": "OperatorUpdated",
      "type": "event"
    },
    {
      "anonymous": false,
      "inputs": [
        {
          "indexed": true,
          "internalType": "address",
          "name": "previousOwner",
          "type": "address"
        },
        {
          "indexed": true,
          "internalType": "address",
          "name": "newOwner",
          "type": "address"
        }
      ],
      "name": "OwnershipTransferred",
      "type": "event"
    },
    {
      "anonymous": false,
      "inputs": [
        {
          "indexed": true,
          "internalType": "bytes32",
          "name": "paymentRef",
          "type": "bytes32"
        },
        {
          "indexed": true,
          "internalType": "address",
          "name": "payer",
          "type": "address"
        },
        {
          "indexed": false,
          "internalType": "uint256",
          "name": "amount",
          "type": "uint256"
        }
      ],
      "name": "PaymentConfirmed",
      "type": "event"
    },
    {
      "inputs": [
        {
          "internalType": "bytes32",
          "name": "paymentRef",
          "type": "bytes32"
        },
        {
          "internalType": "uint256",
          "name": "amount",
          "type": "uint256"
        },
        {
          "internalType": "address",
          "name": "payer",
          "type": "address"
        }
      ],
      "name": "confirmPayment",
      "outputs": [],
      "stateMutability": "nonpayable",
      "type": "function"
    },
    {
      "inputs": [
        {
          "internalType": "bytes32",
          "name": "paymentRef",
          "type": "bytes32"
        }
      ],
      "name": "getPayment",
      "outputs": [
        {
          "components": [
            {
              "internalType": "uint256",
              "name": "amount",
              "type": "uint256"
            },
            {
              "internalType": "address",
              "name": "payer",
              "type": "address"
            },
            {
              "internalType": "uint64",
              "name": "confirmedAt",
              "type": "uint64"
            },
            {
              "internalType": "bool",
              "name": "verified",
              "type": "bool"
            }
          ],
          "internalType": "struct FPSVerifier.PaymentRecord",
          "name": "",
          "type": "tuple"
        }
      ],
      "stateMutability": "view",
      "type": "function"
    },
    {
      "inputs": [
        {
          "internalType": "bytes32",
          "name": "paymentRef",
          "type": "bytes32"
        }
      ],
      "name": "isPaymentVerified",
      "outputs": [
        {
          "internalType": "bool",
          "name": "",
          "type": "bool"
        }
      ],
      "stateMutability": "view",
      "type": "function"
    },
    {
      "inputs": [
        {
          "internalType": "address",
          "name": "",
          "type": "address"
        }
      ],
      "name": "operators",
      "outputs": [
        {
          "internalType": "bool",
          "name": "",
          "type": "bool"
        }
      ],
      "stateMutability": "view",
      "type": "function"
    },
    {
      "inputs": [],
      "name": "owner",
      "outputs": [
        {
          "internalType": "address",
          "name": "",
          "type": "address"
        }
      ],
      "stateMutability": "view",
      "type": "function"
    },
    {
      "inputs": [
        {
          "internalType": "bytes32",
          "name": "",
          "type": "bytes32"
        }
      ],
      "name": "payments",
      "outputs": [
        {
          "internalType": "uint256",
          "name": "amount",
          "type": "uint256"
        },
        {
          "internalType": "address",
          "name": "payer",
          "type": "address"
        },
        {
          "internalType": "uint64",
          "name": "confirmedAt",
          "type": "uint64"
        },
        {
          "internalType": "bool",
          "name": "verified",
          "type": "bool"
        }
      ],
      "stateMutability": "view",
      "type": "function"
    },
    {
      "inputs": [],
      "name": "renounceOwnership",
      "outputs": [],
      "stateMutability": "nonpayable",
      "type": "function"
    },
    {
      "inputs": [
        {
          "internalType": "address",
          "name": "_operator",
          "type": "address"
        },
        {
          "internalType": "bool",
          "name": "_enabled",
          "type": "bool"
        }
      ],
      "name": "setOperator",
      "outputs": [],
      "stateMutability": "nonpayable",
      "type": "function"
    },
    {
      "inputs": [
        {
          "internalType": "address",
          "name": "newOwner",
          "type": "address"
        }
      ],
      "name": "transferOwnership",
      "outputs": [],
      "stateMutability": "nonpayable",
      "type": "function"
    },
    {
      "inputs": [
        {
          "internalType": "bytes32",
          "name": "paymentRef",
          "type": "bytes32"
        },
        {
          "internalType": "uint256",
          "name": "amount",
          "type": "uint256"
        },
        {
          "internalType": "address",
          "name": "payer",
          "type": "address"
        }
      ],
      "name": "verifyPayment",
      "outputs": [
        {
          "internalType": "bool",
          "name": "",
          "type": "bool"
        }
      ],
      "stateMutability": "nonpayable",
      "type": "function"
    }
  ],
  "bytecode": "0x608060405234801561001057600080fd5b50338061003757604051631e4fbdf760e01b81526000600482015260240160405180910390fd5b61004081610097565b5033600081815260026020908152604091829020805460ff1916600190811790915591519182527f966c160e1c4dbc7df8d69af4ace01e9297c3cf016397b7914971f2fbfa32672d910160405180910390a26100e7565b600080546001600160a01b038381166001600160a01b0319831681178455604051919092169283917f8be0079c531659141344cd1fd0a4f28419497f9722a3daafe3b4186f6b6457e09190a35050565b6107e4806100f66000396000f3fe608060405234801561001057600080fd5b506004361061009e5760003560e01c8063715018a611610066578063715018a6146101b8578063775b1d06146101c05780638da5cb5b146101d3578063e66eefc8146101ee578063f2fde38b146102c857600080fd5b80630716326d146100a357806313e7c9d81461012f57806343fd6ce514610162578063558a729714610190578063611fe5f3146101a5575b600080fd5b6100f16100b13660046106e6565b600160208190526000918252604090912080549101546001600160a01b03811690600160a01b810467ffffffffffffffff1690600160e01b900460ff1684565b604080519485526001600160a01b03909316602085015267ffffffffffffffff90911691830191909152151560608201526080015b60405180910390f35b61015261013d36600461071b565b60026020526000908152604090205460ff1681565b6040519015158152602001610126565b6101526101703660046106e6565b60009081526001602081905260409091200154600160e01b900460ff1690565b6101a361019e36600461073d565b6102db565b005b6101526101b3366004610779565b610369565b6101a361049c565b6101a36101ce366004610779565b6104b0565b6000546040516001600160a01b039091168152602001610126565b6102806101fc3660046106e6565b604080516080810182526000808252602082018190529181018290526060810191909152506000908152600160208181526040928390208351608081018552815481529201546001600160a01b03811691830191909152600160a01b810467ffffffffffffffff1692820192909252600160e01b90910460ff161515606082015290565b6040516101269190815181526020808301516001600160a01b03169082015260408083015167ffffffffffffffff169082015260609182015115159181019190915260800190565b6101a36102d636600461071b565b610626565b6102e3610669565b6001600160a01b03821661030a5760405163d92e233d60e01b815260040160405180910390fd5b6001600160a01b038216600081815260026020908152604091829020805460ff191685151590811790915591519182527f966c160e1c4dbc7df8d69af4ace01e9297c3cf016397b7914971f2fbfa32672d910160405180910390a25050565b3360009081526002602052604081205460ff16610399576040516327e1f1e560e01b815260040160405180910390fd5b60008481526001602081905260409091200154600160e01b900460ff16156103d457604051630231faf760e31b815260040160405180910390fd5b604080516080810182528481526001600160a01b03848116602080840182815267ffffffffffffffff42811686880190815260016060880181815260008e81528287528a902098518955935197018054915193511515600160e01b0260ff60e01b1994909316600160a01b026001600160e01b03199092169790961696909617959095171693909317909155915185815286917f39fd390557813740ae66de7cbe4bfd65a0d32b878de7ab7091c33b52ee8697d9910160405180910390a35060019392505050565b6104a4610669565b6104ae6000610696565b565b3360009081526002602052604090205460ff166104e0576040516327e1f1e560e01b815260040160405180910390fd5b8160000361050157604051631f2a200560e01b815260040160405180910390fd5b6001600160a01b0381166105285760405163d92e233d60e01b815260040160405180910390fd5b60008381526001602081905260409091200154600160e01b900460ff161561056357604051630231faf760e31b815260040160405180910390fd5b604080516080810182528381526001600160a01b03838116602080840182815267ffffffffffffffff42811686880190815260016060880181815260008d81528287528a902098518955935197018054915193511515600160e01b0260ff60e01b1994909316600160a01b026001600160e01b03199092169790961696909617959095171693909317909155915184815285917f39fd390557813740ae66de7cbe4bfd65a0d32b878de7ab7091c33b52ee8697d9910160405180910390a3505050565b61062e610669565b6001600160a01b03811661065d57604051631e4fbdf760e01b8152600060048201526024015b60405180910390fd5b61066681610696565b50565b6000546001600160a01b031633146104ae5760405163118cdaa760e01b8152336004820152602401610654565b600080546001600160a01b038381166001600160a01b0319831681178455604051919092169283917f8be0079c531659141344cd1fd0a4f28419497f9722a3daafe3b4186f6b6457e09190a35050565b6000602082840312156106f857600080fd5b5035919050565b80356001600160a01b038116811461071657600080fd5b919050565b60006020828403121561072d57600080fd5b610736826106ff565b9392505050565b6000806040838503121561075057600080fd5b610759836106ff565b91506020830135801515811461076e57600080fd5b809150509250929050565b60008060006060848603121561078e57600080fd5b83359250602084013591506107a5604085016106ff565b9050925092509256fea2646970667358221220035c24547c0c1e3b14a9412f55773844f314ce4c643ad5afc53f8d757c2e6b9964736f6c63430008180033",
  "linkReferences": {},
  "deployedLinkReferences": {}
}