{
  "_format": "hh-sol-artifact-1",
  "contractName": "RemicoPay",
  "sourceName": "contracts/RemicoPay.sol",
  "abi": [
    {
      "inputs": [
        {
          "internalType": "address",
          "name": "_hkdr",
          "type": "address"
        },
        {
          "internalType": "address",
          "name": "_phpc",
          "type": "address"
        },
        {
          "internalType": "uint256",
          "name": "_exchangeRate",
          "type": "uint256"
        },
        {
          "internalType": "uint256",
          "name": "_feeBps",
          "type": "uint256"
        }
      ],
      "stateMutability": "nonpayable",
      "type": "constructor"
    },
    {
      "inputs": [],
      "name": "InsufficientAllowance",
      "type": "error"
    },
    {
      "inputs": [],
      "name": "InvalidFee",
      "type": "error"
    },
    {
      "inputs": [],
      "name": "InvalidRate",
      "type": "error"
    },
    {
      "inputs": [
        {
          "internalType": "address",
          "name": "owner",
          "type": "address"
        }
      ],
      "name": "OwnableInvalidOwner",
      "type": "error"
    },
    {
      "inputs": [
        {
          "internalType": "address",
          "name": "account",
          "type": "address"
        }
      ],
      "name": "OwnableUnauthorizedAccount",
      "type": "error"
    },
    {
      "inputs": [],
      "name": "ReentrancyGuardReentrantCall",
      "type": "error"
    },
    {
      "inputs": [],
      "name": "RemittanceNotFound",
      "type": "error"
    },
    {
      "inputs": [],
      "name": "RemittanceNotPending",
      "type": "error"
    },
    {
      "inputs": [
        {
          "internalType": "address",
          "name": "token",
          "type": "address"
        }
      ],
      "name": "SafeERC20FailedOperation",
      "type": "error"
    },
    {
      "inputs": [],
      "name": "ZeroAddress",
      "type": "error"
    },
    {
      "inputs": [],
      "name": "ZeroAmount",
      "type": "error"
    },
    {
      "anonymous": false,
      "inputs": [
        {
          "indexed": false,
          "internalType": "uint256",
          "name": "oldRate",
          "type": "uint256"
        },
        {
          "indexed": false,
          "internalType": "uint256",
          "name": "newRate",
          "type": "uint256"
        }
      ],
      "name": "ExchangeRateUpdated",
      "type": "event"
    },
    {
      "anonymous": false,
      "inputs": [
        {
          "indexed": false,
          "internalType": "uint256",
          "name": "oldFee",
          "type": "uint256"
        },
        {
          "indexed": false,
          "internalType": "uint256",
          "name": "newFee",
          "type": "uint256"
        }
      ],
      "name": "FeeBpsUpdated",
      "type": "event"
    },
    {
      "anonymous": false,
      "inputs": [
        {
          "indexed": true,
          "internalType": "address",
          "name": "previousOwner",
          "type": "address"
        },
        {
          "indexed": true,
          "internalType": "address",
          "name": "newOwner",
          "type": "address"
        }
      ],
      "name": "OwnershipTransferred",
      "type": "event"
    },
    {
      "anonymous": false,
      "inputs": [
        {
          "indexed": true,
          "internalType": "uint256",
          "name": "remitId",
          "type": "uint256"
        },
        {
          "indexed": true,
          "internalType": "address",
          "name": "recipient",
          "type": "address"
        },
        {
          "indexed": false,
          "internalType": "uint256",
          "name": "phpAmount",
          "type": "uint256"
        }
      ],
      "name": "RemittanceCompleted",
      "type": "event"
    },
    {
      "anonymous": false,
      "inputs": [
        {
          "indexed": true,
          "internalType": "uint256",
          "name": "remitId",
          "type": "uint256"
        },
        {
          "indexed": true,
          "internalType": "address",
          "name": "sender",
          "type": "address"
        },
        {
          "indexed": true,
          "internalType": "address",
          "name": "recipient",
          "type": "address"
        },
        {
          "indexed": false,
          "internalType": "uint256",
          "name": "hkdAmount",
          "type": "uint256"
        },
        {
          "indexed": false,
          "internalType": "uint256",
          "name": "phpAmount",
          "type": "uint256"
        },
        {
          "indexed": false,
          "internalType": "uint256",
          "name": "fee",
          "type": "uint256"
        },
        {
          "indexed": false,
          "internalType": "uint256",
          "name": "rate",
          "type": "uint256"
        }
      ],
      "name": "RemittanceCreated",
      "type": "event"
    },
    {
      "anonymous": false,
      "inputs": [
        {
          "indexed": true,
          "internalType": "uint256",
          "name": "remitId",
          "type": "uint256"
        },
        {
          "indexed": true,
          "internalType": "address",
          "name": "sender",
          "type": "address"
        },
        {
          "indexed": false,
          "internalType": "uint256",
          "name": "hkdAmount",
          "type": "uint256"
        }
      ],
      "name": "RemittanceRefunded",
      "type": "event"
    },
    {
      "inputs": [
        {
          "internalType": "uint256",
          "name": "remitId",
          "type": "uint256"
        }
      ],
      "name": "completeRemittance",
      "outputs": [],
      "stateMutability": "nonpayable",
      "type": "function"
    },
    {
      "inputs": [
        {
          "internalType": "address",
          "name": "recipient",
          "type": "address"
        },
        {
          "internalType": "uint256",
          "name": "hkdAmount",
          "type": "uint256"
        }
      ],
      "name": "createRemittance",
      "outputs": [
        {
          "internalType": "uint256",
          "name": "remitId",
          "type": "uint256"
        }
      ],
      "stateMutability": "nonpayable",
      "type": "function"
    },
    {
      "inputs": [],
      "name": "exchangeRate",
      "outputs": [
        {
          "internalType": "uint256",
          "name": "",
          "type": "uint256"
        }
      ],
      "stateMutability": "view",
      "type": "function"
    },
    {
      "inputs": [],
      "name": "feeBps",
      "outputs": [
        {
          "internalType": "uint256",
          "name": "",
          "type": "uint256"
        }
      ],
      "stateMutability": "view",
      "type": "function"
    },
    {
      "inputs": [
        {
          "internalType": "uint256",
          "name": "hkdAmount",
          "type": "uint256"
        }
      ],
      "name": "getQuote",
      "outputs": [
        {
          "internalType": "uint256",
          "name": "phpAmount",
          "type": "uint256"
        },
        {
          "internalType": "uint256",
          "name": "fee",
          "type": "uint256"
        },
        {
          "internalType": "uint256",
          "name": "rate",
          "type": "uint256"
        }
      ],
      "stateMutability": "view",
      "type": "function"
    },
    {
      "inputs": [
        {
          "internalType": "uint256",
          "name": "remitId",
          "type": "uint256"
        }
      ],
      "name": "getRemittance",
      "outputs": [
        {
          "components": [
            {
              "internalType": "address",
              "name": "sender",
              "type": "address"
            },
            {
              "internalType": "address",
              "name": "recipient",
              "type": "address"
            },
            {
              "internalType": "uint256",
              "name": "hkdAmount",
              "type": "uint256"
            },
            {
              "internalType": "uint256",
              "name": "phpAmount",
              "type": "uint256"
            },
            {
              "internalType": "uint256",
              "name": "fee",
              "type": "uint256"
            },
            {
              "internalType": "uint256",
              "name": "lockedRate",
              "type": "uint256"
            },
            {
              "internalType": "uint64",
              "name": "createdAt",
              "type": "uint64"
            },
            {
              "internalType": "enum RemicoPay.Status",
              "name": "status",
              "type": "uint8"
            }
          ],
          "internalType": "struct RemicoPay.Remittance",
          "name": "",
          "type": "tuple"
        }
      ],
      "stateMutability": "view",
      "type": "function"
    },
    {
      "inputs": [],
      "name": "hkdr",
      "outputs": [
        {
          "internalType": "contract IERC20",
          "name": "",
          "type": "address"
        }
      ],
      "stateMutability": "view",
      "type": "function"
    },
    {
      "inputs": [],
      "name": "nextRemitId",
      "outputs": [
        {
          "internalType": "uint256",
          "name": "",
          "type": "uint256"
        }
      ],
      "stateMutability": "view",
      "type": "function"
    },
    {
      "inputs": [],
      "name": "owner",
      "outputs": [
        {
          "internalType": "address",
          "name": "",
          "type": "address"
        }
      ],
      "stateMutability": "view",
      "type": "function"
    },
    {
      "inputs": [],
      "name": "phpc",
      "outputs": [
        {
          "internalType": "address",
          "name": "",
          "type": "address"
        }
      ],
      "stateMutability": "view",
      "type": "function"
    },
    {
      "inputs": [
        {
          "internalType": "uint256",
          "name": "remitId",
          "type": "uint256"
        }
      ],
      "name": "refundRemittance",
      "outputs": [],
      "stateMutability": "nonpayable",
      "type": "function"
    },
    {
      "inputs": [
        {
          "internalType": "uint256",
          "name": "",
          "type": "uint256"
        }
      ],
      "name": "remittances",
      "outputs": [
        {
          "internalType": "address",
          "name": "sender",
          "type": "address"
        },
        {
          "internalType": "address",
          "name": "recipient",
          "type": "address"
        },
        {
          "internalType": "uint256",
          "name": "hkdAmount",
          "type": "uint256"
        },
        {
          "internalType": "uint256",
          "name": "phpAmount",
          "type": "uint256"
        },
        {
          "internalType": "uint256",
          "name": "fee",
          "type": "uint256"
        },
        {
          "internalType": "uint256",
          "name": "lockedRate",
          "type": "uint256"
        },
        {
          "internalType": "uint64",
          "name": "createdAt",
          "type": "uint64"
        },
        {
          "internalType": "enum RemicoPay.Status",
          "name": "status",
          "type": "uint8"
        }
      ],
      "stateMutability": "view",
      "type": "function"
    },
    {
      "inputs": [],
      "name": "renounceOwnership",
      "outputs": [],
      "stateMutability": "nonpayable",
      "type": "function"
    },
    {
      "inputs": [
        {
          "internalType": "uint256",
          "name": "newRate",
          "type": "uint256"
        }
      ],
      "name": "setExchangeRate",
      "outputs": [],
      "stateMutability": "nonpayable",
      "type": "function"
    },
    {
      "inputs": [
        {
          "internalType": "uint256",
          "name": "newFeeBps",
          "type": "uint256"
        }
      ],
      "name": "setFeeBps",
      "outputs": [],
      "stateMutability": "nonpayable",
      "type": "function"
    },
    {
      "inputs": [
        {
          "internalType": "address",
          "name": "newOwner",
          "type": "address"
        }
      ],
      "name": "transferOwnership",
      "outputs": [],
      "stateMutability": "nonpayable",
      "type": "function"
    }
  ],
  "bytecode": "0x60c06040523480156200001157600080fd5b506040516200116a3803806200116a833981016040819052620000349162000182565b600160005533806200006057604051631e4fbdf760e01b81526000600482015260240160405180910390fd5b6200006b8162000113565b506001600160a01b03841615806200008a57506001600160a01b038316155b15620000a95760405163d92e233d60e01b815260040160405180910390fd5b81600003620000cb57604051636a43f8d160e01b815260040160405180910390fd5b6103e8811115620000ef576040516358d620b360e01b815260040160405180910390fd5b6001600160a01b039384166080529190921660a052600291909155600355620001ca565b600180546001600160a01b038381166001600160a01b0319831681179093556040519116919082907f8be0079c531659141344cd1fd0a4f28419497f9722a3daafe3b4186f6b6457e090600090a35050565b80516001600160a01b03811681146200017d57600080fd5b919050565b600080600080608085870312156200019957600080fd5b620001a48562000165565b9350620001b46020860162000165565b6040860151606090960151949790965092505050565b60805160a051610f5e6200020c60003960008181610183015281816103ff01526108c601526000818161010a015281816108780152610b450152610f5e6000f3fe608060405234801561001057600080fd5b50600436106101005760003560e01c806379bdfff411610097578063cf39918e11610066578063cf39918e14610291578063db068e0e146102bf578063f2fde38b146102d2578063f9ebf69e146102e557600080fd5b806379bdfff4146101e05780638da5cb5b146101f35780639cb3e85214610204578063b4ea0d5f1461020d57600080fd5b806364ba3c13116100d357806364ba3c131461017e578063715018a6146101a557806372c27b62146101ad57806373e66f43146101c057600080fd5b8063075866ac1461010557806324a9d853146101495780633ba0b9a9146101605780635de7f90114610169575b600080fd5b61012c7f000000000000000000000000000000000000000000000000000000000000000081565b6040516001600160a01b0390911681526020015b60405180910390f35b61015260035481565b604051908152602001610140565b61015260025481565b61017c610177366004610d36565b6102f8565b005b61012c7f000000000000000000000000000000000000000000000000000000000000000081565b61017c61046b565b61017c6101bb366004610d36565b61047f565b6101d36101ce366004610d36565b6104f0565b6040516101409190610d87565b6101526101ee366004610e1b565b610608565b6001546001600160a01b031661012c565b61015260045481565b61027d61021b366004610d36565b600560208190526000918252604090912080546001820154600283015460038401546004850154958501546006909501546001600160a01b0394851696939094169491939092919067ffffffffffffffff81169060ff600160401b9091041688565b604051610140989796959493929190610e45565b6102a461029f366004610d36565b610937565b60408051938452602084019290925290820152606001610140565b61017c6102cd366004610d36565b6109ae565b61017c6102e0366004610ea4565b610a15565b61017c6102f3366004610d36565b610a55565b610300610b79565b610308610ba6565b600454811061032a57604051630638c3db60e41b815260040160405180910390fd5b6000818152600560205260408120906006820154600160401b900460ff16600281111561035957610359610d4f565b1461037757604051631f8f702560e11b815260040160405180910390fd5b6001810154600382015460068301805460ff60401b1916600160401b1790556040518181526001600160a01b0390921691829085907f6d74db8ae01a3dbd4b27059d5065ede6f515adc14de4678cc4eabb244dc95ecc9060200160405180910390a36040516340c10f1960e01b81526001600160a01b038381166004830152602482018390527f000000000000000000000000000000000000000000000000000000000000000016906340c10f1990604401600060405180830381600087803b15801561044357600080fd5b505af1158015610457573d6000803e3d6000fd5b505050505050506104686001600055565b50565b610473610b79565b61047d6000610bd0565b565b610487610b79565b6103e88111156104aa576040516358d620b360e01b815260040160405180910390fd5b600380549082905560408051828152602081018490527f5ec5620e288c4be955ccb6cfb3d55431a8fed5c4c96ffacc4b9506360695f64e91015b60405180910390a15050565b6105356040805161010081018252600080825260208201819052918101829052606081018290526080810182905260a0810182905260c081018290529060e082015290565b600454821061055757604051630638c3db60e41b815260040160405180910390fd5b60008281526005602081815260409283902083516101008101855281546001600160a01b039081168252600183015416928101929092526002808201549483019490945260038101546060830152600481015460808301529182015460a0820152600682015467ffffffffffffffff811660c0830152909260e0840191600160401b900460ff16908111156105ee576105ee610d4f565b60028111156105ff576105ff610d4f565b90525092915050565b6000610612610ba6565b6001600160a01b0383166106395760405163d92e233d60e01b815260040160405180910390fd5b8160000361065a57604051631f2a200560e01b815260040160405180910390fd5b600254600354600061271061066f8387610edc565b6106799190610ef3565b905060006106878287610f15565b90506000620f42406106998684610edc565b6106a39190610ef3565b60048054600180820190925560408051610100810182523381526001600160a01b038d1660208201529081018b9052606081018490526080810187905260a0810189905267ffffffffffffffff421660c082015290985091925060e0820152600087815260056020818152604092839020845181546001600160a01b03199081166001600160a01b039283161783559286015160018301805490941691161790915591830151600280840191909155606084015160038401556080840151600484015560a08401519183019190915560c083015160068301805467ffffffffffffffff19811667ffffffffffffffff909316928317825560e086015193919268ffffffffffffffffff199091161790600160401b9084908111156107c9576107c9610d4f565b0217905550506040805189815260208101849052908101859052606081018790526001600160a01b038a169150339088907f8e0a4c64a0db630be23554730e48f763dde6cb7b66d81a47ac11d9d30881d9309060800160405180910390a4876001600160a01b0316867f6d74db8ae01a3dbd4b27059d5065ede6f515adc14de4678cc4eabb244dc95ecc8360405161086391815260200190565b60405180910390a36108a06001600160a01b037f00000000000000000000000000000000000000000000000000000000000000001633308a610c22565b6040516340c10f1960e01b81526001600160a01b038981166004830152602482018390527f000000000000000000000000000000000000000000000000000000000000000016906340c10f1990604401600060405180830381600087803b15801561090a57600080fd5b505af115801561091e573d6000803e3d6000fd5b5050505050505050506109316001600055565b92915050565b60008060008360000361095d57604051631f2a200560e01b815260040160405180910390fd5b50600254600354612710906109729086610edc565b61097c9190610ef3565b9150600061098a8386610f15565b9050620f424061099a8383610edc565b6109a49190610ef3565b9350509193909250565b6109b6610b79565b806000036109d757604051636a43f8d160e01b815260040160405180910390fd5b600280549082905560408051828152602081018490527fc8d1043f24843c0a1c9251fdc30017d84e87498fbcf232af9f86816b5e182bde91016104e4565b610a1d610b79565b6001600160a01b038116610a4c57604051631e4fbdf760e01b8152600060048201526024015b60405180910390fd5b61046881610bd0565b610a5d610b79565b610a65610ba6565b6004548110610a8757604051630638c3db60e41b815260040160405180910390fd5b6000818152600560205260408120906006820154600160401b900460ff166002811115610ab657610ab6610d4f565b14610ad457604051631f8f702560e11b815260040160405180910390fd5b8054600282015460068301805460ff60401b1916680200000000000000001790556040518181526001600160a01b0390921691829085907fa41e06c7ada25bbbeb951c502bd4d4c37fc67dbac2d94512fcc98f1b9ad2d1099060200160405180910390a3610b6c6001600160a01b037f0000000000000000000000000000000000000000000000000000000000000000168383610c8f565b5050506104686001600055565b6001546001600160a01b0316331461047d5760405163118cdaa760e01b8152336004820152602401610a43565b600260005403610bc957604051633ee5aeb560e01b815260040160405180910390fd5b6002600055565b600180546001600160a01b038381166001600160a01b0319831681179093556040519116919082907f8be0079c531659141344cd1fd0a4f28419497f9722a3daafe3b4186f6b6457e090600090a35050565b6040516001600160a01b038481166024830152838116604483015260648201839052610c899186918216906323b872dd906084015b604051602081830303815290604052915060e01b6020820180516001600160e01b038381831617835250505050610cc5565b50505050565b6040516001600160a01b03838116602483015260448201839052610cc091859182169063a9059cbb90606401610c57565b505050565b600080602060008451602086016000885af180610ce8576040513d6000823e3d81fd5b50506000513d91508115610d00578060011415610d0d565b6001600160a01b0384163b155b15610c8957604051635274afe760e01b81526001600160a01b0385166004820152602401610a43565b600060208284031215610d4857600080fd5b5035919050565b634e487b7160e01b600052602160045260246000fd5b60038110610d8357634e487b7160e01b600052602160045260246000fd5b9052565b60006101008201905060018060a01b038084511683528060208501511660208401525060408301516040830152606083015160608301526080830151608083015260a083015160a083015267ffffffffffffffff60c08401511660c083015260e0830151610df860e0840182610d65565b5092915050565b80356001600160a01b0381168114610e1657600080fd5b919050565b60008060408385031215610e2e57600080fd5b610e3783610dff565b946020939093013593505050565b6001600160a01b0389811682528816602082015260408101879052606081018690526080810185905260a0810184905267ffffffffffffffff831660c08201526101008101610e9760e0830184610d65565b9998505050505050505050565b600060208284031215610eb657600080fd5b610ebf82610dff565b9392505050565b634e487b7160e01b600052601160045260246000fd5b808202811582820484141761093157610931610ec6565b600082610f1057634e487b7160e01b600052601260045260246000fd5b500490565b8181038181111561093157610931610ec656fea26469706673582212200d5dfcfe54599961eadf7cfc3de38e738e96dcb6f3ea3addb3c81f715445add464736f6c63430008180033",
  "linkReferences": {},
  "deployedLinkReferences": {}
}